:020000040000FA
:1000000070510020DD040000E5040000E103000061
:10001000E9040000EB040000ED0400000000000013
:10002000000000000000000000000000EF040000DD
:10003000F104000000000000F3040000F5040000DB
:1000400095160000F7040000F918000015170000CD
:10005000F7040000F7040000F5130000F7040000A7
:10006000F7040000F7040000F7040000F7040000A4
:10007000F7040000F7040000F7040000F704000094
:10008000F7040000A5160000F7040000F7040000C4
:10009000F7040000F7040000F7040000F704000074
:1000A000F7040000F7040000F7040000F704000064
:1000B000F7040000F704000000000000000000004A
:1000C000F7040000F7040000F7040000F704000044
:1000D000F7040000F7040000F70400000519000011
:1000E000F7040000F7040000F7040000000000001F
:1000F00000000000F704000000000000F70400000A
:1001000000000000000000000000000000000000EF
:1001100000000000000000000000000000000000DF
:1001200000000000000000000000000000000000CF
:1001300000000000000000000000000000000000BF
:1001400000000000000000000000000000000000AF
:10015000000000000000000000000000000000009F
:10016000000000000000000000000000000000008F
:10017000000000000000000000000000000000007F
:10018000000000000000000000000000000000006F
:10019000000000000000000000000000000000005F
:1001A000000000000000000000000000000000004F
:1001B000000000000000000000000000000000003F
:1001C000000000000000000000000000000000002F
:1001D000000000000000000000000000000000001F
:1001E000000000000000000000000000000000000F
:1001F00000000000000000000000000000000000FF
:10020000DFF810D000F046FC004800473D530000E6
:10021000AFF300807051002030B4044654E8000F62
:100220000D4644E80053002BF8D1156030BC7047F0
:1002300030B4044654E8000F40EA010544E8005396
:10024000002BF7D1156030BC704730B4044654E839
:10025000000F00EA010544E80053002BF7D11560B8
:1002600030BC704730B4044654E8000F80EA010502
:1002700044E80053002BF7D1156030BC704730B410
:10028000044654E8000F00EB010544E80053002B3E
:10029000F7D1156030BC704730B4044654E8000F05
:1002A000A0EB010544E80053002BF7D1156030BCEA
:1002B000704770B404464FF0000054E8006F0D68BA
:1002C000AE4207BF44E80023012044E800630E600B
:1002D000002B1CBF0020F0E770BC704730B4044610
:1002E00054E8000F88422CBF451A054644E80053E5
:1002F000002BF5D1156030BC7047000030B40446C7
:1003000054E8000F0D4644E80053002BF8D1156067
:1003100030BC704730B4044654E8000F40EA010591
:1003200044E80053002BF7D1156030BC704730B45F
:10033000044654E8000F00EA010544E80053002B8E
:10034000F7D1156030BC704730B4044654E8000F54
:1003500080EA010544E80053002BF7D1156030BC5A
:10036000704730B4044654E8000F00EB010544E840
:100370000053002BF7D1156030BC704730B40446F1
:1003800054E8000FA0EB010544E80053002BF7D11F
:10039000156030BC704770B404464FF0000054E85C
:1003A000006F0D68AE4207BF44E80023012044E817
:1003B00000630E60002B1CBF0020F0E770BC70478C
:1003C00030B4044654E8000F88422CBF451A054655
:1003D00044E80053002BF5D1156030BC7047000095
:1003E000094B1EF0040F1CBFEFF309801847EFF311
:1003F00008800649064A884201D8904202D88D46B4
:100400004FF00000184700009914000070510020C0
:100410007031002030B450E8012F93B2C4892344D6
:100420008489A34228BF1B1B0489A34202BFBFF3D8
:100430002F8F002007E0C3EA020340E80134002CBC
:10044000E9D14FF001000A6030BC704750E8012F3D
:10045000C2EA024240E801210029F7D1704730B4D6
:1004600050E8022F1FFAA2F3C488A34202BFBFF3D1
:100470002F8F00200DE0C48923448489A34228BF24
:100480001B1BC2EA034340E80234002CE8D14FF0C2
:1004900001000A6030BC704750E8022FC2EA2242D5
:1004A00040E802210029F7D17047034653E8022FA4
:1004B000D988B2EB324F4FF0000017BF92B241EA39
:1004C000014142EA014104E05A68B2EB324F08BFF1
:1004D000012043E80212002AE8D17047064880470D
:1004E00006480047FEE7FEE7FEE7FEE7FEE7FEE719
:1004F000FEE7FEE7FEE7FEE7251700000102000029
:10050000004870474494000040EA01039B0703D071
:1005100009E008C9121F08C0042AFAD203E011F842
:10052000013B00F8013B521EF9D27047D2B201E004
:1005300000F8012B491EFBD270470022F6E710B5E8
:1005400013460A4604461946FFF7F0FF204610BD41
:10055000421C10F8011B0029FBD1801A704703468A
:1005600011F8012B00F8012B002AF9D11846704729
:100570002DE9FE4F81EA030404F0004421F000411C
:1005800000944FF0000B23F0004350EA01045ED0CA
:1005900052EA03045BD0C3F30A54C1F30A552C4456
:1005A000A4F2F3340194A0FB0254C1F3130141F40B
:1005B0008011C3F3130343F4801301FB024400FBD7
:1005C000034E840A970A44EA815447EA8357A4FBFE
:1005D000076802958D0A05FB07854FEA932C04FBFB
:1005E0000C542705029D4FEA065847EA1637B5EB2B
:1005F00008056EEB070C870E920E47EA811742EA58
:100600008312A7FB0201B6EB0B0164EB00042B0D78
:1006100043EA0C335E1844EB1C50DA465146E7FBC4
:100620000201C5F313044FEA0B3343EA14534FEAB4
:100630000432019C43EA0603A4F10C040294009CDA
:10064000CDE900B400F082F803B0BDE8F08F0020DF
:100650000146F9E7C1F30A5210B5C1F3130140F2A4
:10066000FF3341F480119A4201DA002010BD40F2BC
:1006700033439A42A2F2334203DC524200F047F87D
:1006800010BD904010BD00F0004230F000400AD094
:10069000C10D01F56071C0F3160042EA0151C208B4
:1006A0004007114370470020014670472DE9F05F75
:1006B0000546002092469B468846064681464024D1
:1006C0001BE0284641464746224600F020F85346A4
:1006D0005A46C01A914110D311461846224600F0DE
:1006E000EBF92D1A67EB01084F4622460120002145
:1006F00000F0E2F917EB00094E41201EA4F10104BD
:10070000DFDC484631462A464346BDE8F09F202AB2
:1007100004DB203A21FA02F00021704721FA02F3AB
:10072000D040C2F12002914008431946704710B5ED
:10073000141E73F1000408DA401C41F10001921804
:100740005B411A4301D120F0010010BD2DE9F04DAD
:1007500092469B4611B1B1FA81F202E0B0FA80F202
:100760002032904600F0A8F904460F4640EA0A00FD
:1007700041EA0B0153465A46084313D0114653EA47
:10078000010019D0C8F140025046FFF7C0FF0546EE
:100790000E4650465946424600F08EF9084305D0B1
:1007A000012004E020463946BDE8F08D00200543D5
:1007B00046EAE0762C4337430A986305E40AA0EB47
:1007C00008000022FD0A44EA47540A3002D50020FE
:1007D0000146E9E7010510196941DDE908450019FD
:1007E0006941BDE8F04DA2E72DE9FE4F804681EA60
:1007F0000300C00F0C46009021F0004123F000459B
:10080000B8EB0200A94105D24046214690461C465D
:100810000B46024623F00040104347D0270DC7F394
:100820000A00C3F30A510290401A019040286BDA83
:10083000C3F3130040F4801B0098924620B10023BC
:10084000D2EB030A63EB0B0B01985946C0F140024F
:10085000504600F031F906460D4650465946019A79
:1008600000F039F910EB08006141002487EA1152C9
:1008700084EAE7731A4340D0009A62B3019A012ACE
:100880004FEA075215DC001B61EB02014FF00042FA
:1008900002EA0752CDE90042001C41F580113246C0
:1008A0002B46FFF753FF03B0BDE8F08F40462146CB
:1008B000F9E7001B61EB0201001C41F580130018F1
:1008C0005B412018A2F5001747EB030140EAD57001
:1008D000B6196D4111E06D084FEA360645EAC0755C
:1008E0004FEA0752001B61EB0201001C41F5801129
:1008F00049084FEA30000019514132462B4603B0F7
:10090000BDE8F04FFFF713BF00980122400000231D
:10091000D0EB020263EBE073009821464FEAE074EB
:10092000B8EB000061EB0401E9E783F000435BE70B
:1009300081F0004158E72DE9F04D81EA030404F00D
:10094000004B21F0004514464FF0000A23F000410F
:1009500050EA050220D054EA01021DD0C5F30A571F
:100960000246C5F31303C1F31300C1F30A5640F462
:10097000801543F48013A7EB0608101BD64608F237
:10098000FD3873EB050002D308F1010801E092186D
:100990005B41B8F1000F03DA00200146BDE8F08D9D
:1009A00000204FF48011064684460EE0171B73EBBF
:1009B000050705D3121B63EB050306434CEA010C44
:1009C00049084FEA300092185B4150EA0107EDD127
:1009D00052EA030012D082EA040083EA05010843C8
:1009E00005D0101BAB4106D20122002306E00022F5
:1009F0004FF0004302E06FF0010253101AEB0600C3
:100A00004CEB085110EB0A0041EB0B01BDE8F04D37
:100A1000FFF78DBE70B521F0004303430CD0C1F346
:100A20000A550024D5EB040564EB0403D617AD1A70
:100A3000B34102DB0020014670BD201841EB02519A
:100A400070BD0EB5C10F80EAE0700844CA070021EE
:100A500040F233438DE80E000A460B46FFF776FE60
:100A600003B000BD30B5041E71F1000404DB4FF08B
:100A70000044404264EB0101141E73F1000405DBE5
:100A80001C464FF00043524263EB0403994208BFF7
:100A9000904230BD064C074D06E0E06840F001038F
:100AA00094E8070098471034AC42F6D3FFF7ACFB4C
:100AB000BC9A0000DC9A0000202A04DB203A00FAED
:100AC00002F1002070479140C2F1200320FA03F3A5
:100AD000194390407047202A06DBCB17203A41FA91
:100AE00002F043EAE07306E041FA02F3D040C2F1BB
:100AF000200291400843194670472DE9F04D00232C
:100B00001A461B1A8A4103DB00200146BDE8F08D1E
:100B1000C1F30A52C1F3130141F480154FF0000BE9
:100B2000D10702D100186D41521E0027044640F241
:100B3000FF11384601EB620A3E468046024600201D
:100B40004FF48011FFF7E3FDC2197141BB1846EB6A
:100B50000100B4EB030C75EB000C04D3E41A65EB55
:100B6000000517460E46241908F101006D41804624
:100B70003428E3DDF91946EB0600091BA84103D22E
:100B80004FF0FF32134601E0002213461BEB070033
:100B900046EB0A51BDE8F04DFFF7C9BD30B58C18E2
:100BA00010F8012B12F00F0301D110F8013B1209CC
:100BB00006D110F8012B03E010F8015B01F8015B8E
:100BC0005B1EF9D101E001F8013B521EFBD1A142AD
:100BD000E6D3002030BD00002DE9FC47814621A06E
:100BE0000E46006801908DF805101F481F493246D7
:100BF000401AC008032101EB00401DA105F0D0FB05
:100C000005F0B2FA0028FBD1224C804684F800801F
:100C1000022301AA0D212048CDF8008004F07FFEB8
:100C2000051E01D002F024F920780028FCD01B4FCB
:100C3000387890B98DB984F8008033464A460D2142
:100C4000154804F069FE051E01D002F011F9207864
:100C50000028FCD0387800B915B10020BDE8FC8729
:100C60000120FBE7A10000005C9B0000EC9A000063
:100C7000426C6F636B2072656164696E67202564E6
:100C80002062797465732066726F6D20706F696E73
:100C90007465720002000020E08F00000300002055
:100CA00030B589B00C4605461E2932D8A0208DF8F3
:100CB00004001A481A498DF80540401AC00803215B
:100CC00001EB0040224617A105F06AFB05F04CFA43
:100CD0000028FBD1002101A803E06A5C4318491CED
:100CE0009A70A142F9DB184D00202870A41C0090D6
:100CF000E3B201AA0D21154804F011FE041E01D033
:100D000002F0B6F828780028FCD01148007800B925
:100D100014B1002009B030BD0120FBE75C9B00004E
:100D2000EC9A0000426C6F636B2057726974696EB5
:100D30006720256420627974657320746F20706F5A
:100D4000696E74657200000002000020E08F0000F0
:100D50000300002070B505460C46104600F046F929
:100D6000002806D021462846FFF736FF002800D08D
:100D7000012070BD10B5044694220221FFF7EAFF5E
:100D8000002807D096220221A01CFFF7E3FF0028CD
:100D900000D0012010BD000070B504468F22012153
:100DA000FFF7D8FF0546094809492278401AC008CC
:100DB000032101EB00408F2306A105F0F8FA00BFE4
:100DC00005F0D2F90028FBD1284670BD5C9B0000DD
:100DD000EC9A0000526561642030782578206672B4
:100DE0006F6D20726567697374657220307825783D
:100DF000000000007CB542EA810141EA0010C2B265
:100E0000069C1349200140EAC300C4B28120CDE909
:100E100000400E481546401AC008032101EB00406F
:100E200080230CA105F0D4FA05F09EF90028FBD12F
:100E30008021284600F086FA002805D02046BDE82B
:100E40007C40812100F07EBA7CBD00005C9B0000EC
:100E5000EC9A000053656E64696E672030782578DF
:100E600020746F207265676973746572203078250D
:100E70007820616E64203078257820746F20726548
:100E80006769737465722030782578001CB5B0F5F9
:100E9000007F01D300201CBDC0F30022C3B20A436F
:100EA0008A2000900D480E498DF80420401AC00891
:100EB000032101EB00408DF805300AA105F07FFA0F
:100EC00005F052F90028FBD18A22022101A800F086
:100ED00081FA0028DFD001201CBD00005C9B0000CF
:100EE000EC9A000053656E64696E6720307825784F
:100EF000257820746F20726567697374657220307D
:100F00007825780030B5044628480D462DED028B33
:100F100083B0844204D9002003B0BDEC028B30BD05
:100F20009FED231B9FED240B00F00AFEB0EE408ADC
:100F3000A80800EE100AF0EE608AF8EE400A00EE13
:100F4000104AB8EE401A81EE200A10EE100AFFF7A0
:100F50009AFB53EC182BFFF70BFBFFF77BFBC0F35F
:100F60000342C0F30723C0B28DF8082085218DF815
:100F70000930CDE900018DF80A0011481149401AE5
:100F8000C008032101EB00400FA105F021FA00BFCA
:100F900005F0EAF80028FBD18522032102A800F021
:100FA00019FA0028B8D00120B6E70000A086010099
:100FB0000000000000003B40000000000000004076
:100FC0005C9B0000EC9A000053656E64696E6720BC
:100FD000307825782578257820746F2072656769C8
:100FE0007374657220307825780000007CB516A1F6
:100FF000174A0968019115498DF80500891AC90831
:10100000032202EB0143024612A1184605F0C8F97B
:1010100005F0AAF80028FBD1144D28700090022397
:1010200001AA0D21124804F07AFC041E01D001F03F
:101030001FFF28780028FCD00E48007800B90CB1BA
:1010400000207CBD01207CBDB00000005C9B000046
:10105000EC9A000053657474696E6720506F696E76
:1010600074657220746F2025780000000200002053
:10107000E08F00000300002030B50D4604462949EA
:10108000A0F57A702DED028B83B0884204D3002046
:1010900003B0BDEC028B30BD9FED231B9FED240BF5
:1010A00000F04EFDB0EE408AA80800EE100AF0EE07
:1010B000608AF8EE400A00EE104AB8EE401A81EE5F
:1010C000200A10EE100AFFF7DEFA53EC182BFFF798
:1010D0004FFAFFF7BFFAC0F30342C0F30723C0B2D1
:1010E0008DF8082082218DF80930CDE900018DF8B6
:1010F0000A0011481149401AC008032101EB0040C1
:101100000FA105F065F900BF05F02EF80028FBD10E
:101110008222032102A800F05DF90028B8D0012046
:10112000B6E70000B98201000000000000003B406B
:1011300000000000000000405C9B0000EC9A0000F2
:1011400053656E64696E6720307825782578257838
:1011500020746F207265676973746572203078251A
:10116000780000001CB5B0F5007F01D300201CBD45
:10117000C0F30022C3B2882000900E480E498DF8BB
:101180000420401AC008032101EB00408DF805300F
:101190000AA105F014F900BF04F0E6FF0028FBD116
:1011A0008822022101A800F015F90028DFD00120D3
:1011B0001CBD00005C9B0000EC9A000053656E644F
:1011C000696E672030782578257820746F207265E5
:1011D0006769737465722030782578007FB504469E
:1011E00001200090A37B227D617B0B20FFF702FE94
:1011F00000287DD021692068FFF73EFF002877D0C6
:1012000021696068FFF77EFE002871D02089FFF712
:10121000A9FF00286CD0217B6089FFF737FE0028EA
:101220007DD000250095A37B227D617B0120FFF707
:10123000E1FD002873D0642004F094FA0095A37BAC
:10124000227D617B0220FFF7D5FD002867D035485D
:101250003549401AC008032101EB004033A105F0D5
:101260009BF800BF04F080FF0028FBD1E5822068D6
:10127000A0619DF80410490746D401A8FFF78CFD32
:1012800006460A2004F06EFA9DF80400800701D497
:10129000002EF2D104F11C00FFF76CFD217E8DF8C9
:1012A0000810617E8DF80910A17E8DF80A10E07E8D
:1012B0008DF80B00207F8DF80C00607F8DF80D00FD
:1012C000A07F8DF80E00E07F8DF80F00082202A9A4
:1012D0001B4801F0A7FE0095A37B227D617B0320C4
:1012E000FFF788FDE08A401CE0826168A06900E0A9
:1012F00015E00844A06101A8FFF74EFD9DF8041019
:10130000490701D40028B8D10095A37B227D617BD9
:101310000A20FFF76FFDE5822068A061012004B07C
:1013200070BD00005C9B0000EC9A0000537765657F
:1013300070207374617274207375636365737300D6
:10134000BC8F00007CB5164A164B8DF80410D21ADB
:10135000D208032303EB02448DF805000B46024636
:1013600011A1204605F023F804F0FEFE0028FBD171
:10137000154D28700090022301AA0D21134804F096
:10138000CEFA041E01D001F073FD28780028FCD0AD
:101390000F48007800B90CB100207CBD01207CBD55
:1013A0005C9B0000EC9A000057726974696E6720BC
:1013B0003078257820746F20726567697374657260
:1013C000203078257800000002000020E08F000027
:1013D0000300002070B505460C461046FFF706FED8
:1013E000002806D021462846FFF75AFC002800D0E6
:1013F000012070BD2DE9FC410025DFF894800095A7
:101400004FF4807601242F460195304604F0DEFD2E
:1014100038B1D8F80403204203D0304604F0CCFDA4
:101420002543361D64007F1CB6B2082FEDD34FF460
:10143000BE74204604F0CAFD48B1204604F0BCFD4D
:1014400045F000456A460221002004F04BFD15F0EE
:10145000FF0F16D0012600242E420ED008EB840187
:10146000D1F81005D1F81015C0F30520094AC1F3D1
:10147000014152F8242002B190477600641C082CE8
:10148000EAD3002D02DA684606F058F8BDE8FC8180
:10149000006000400C0300202DE9FC47814605F068
:1014A00025F800BF04F060FE0028FBD12E485FEA5B
:1014B000090507682D482E494FF00106A0EB0100F1
:1014C0004FEAD00006EB004417D0204629A1AA69B4
:1014D00004F066FFD5E90201CDE90001D5E900235A
:1014E00020462AA104F074FFE8690090D5E904239E
:1014F000204634A104F063FF03E020463BA104F042
:101500004BFF1948001D0068800703D52046444959
:1015100004F042FFDFF80C81002500BF06FA05F059
:10152000384206D058F825201AB120463EA104F0D2
:1015300037FF6D1C1A2DF1D3380606D50A480C303A
:10154000026820463BA104F02BFF380406D506486C
:101550001030026820463FA104F022FF484600F008
:1015600087F8BDE8FC87000028ED00E03C9B000008
:10157000EC9A000048415244204641554C542061A9
:101580007420307825303858000000002020523078
:101590003A2020307825303858202052313A202007
:1015A000307825303858202052323A2020307825A3
:1015B000303858202052333A20203078253038589F
:1015C0000000000020205231323A20307825303897
:1015D0005820204C523A202030782530385820208E
:1015E0005053523A20307825303858005374616394
:1015F0006B2076696F6C6174696F6E3A20737461E9
:10160000636B20706F696E746572206F7574736997
:10161000646520737461636B20617265612E0000E4
:1016200028950000E000002043617573653A20258D
:10163000732E00004D656D4D616E616765204661DA
:10164000756C7420416464726573733A2030782538
:1016500030385800427573204661756C74204164BF
:1016600064726573733A2030782530385800000072
:10167000BFF34F8F05480168054A01F4E06111434B
:101680000160BFF34F8F00BFFDE700000CED00E0ED
:101690000400FA0510B505F0EBF9BDE8104005F0BF
:1016A0006DB9000002490248091F0968006808472F
:1016B000D800002000F062B970B50E46144900EB66
:1016C000400001EBC0051446E86A183520B1012836
:1016D0000FD0022805D113E0284600F083F9A0427C
:1016E00001D2002411E022463146284600F0D4F908
:1016F0000BE0284600F076F9A042F4D20446F2E767
:101700003146284600F09BF90446204670BD000093
:10171000E80E00200149024806F046BEC40200203F
:101720000030004070B54FF080520124D2E94C10D7
:101730000023082906D1CD06C5F80C31C5F81031B3
:101740005E4D2B60082955D15D4D2D685D4E35608D
:101750005B4D2D1D2D68361D3560594D08352D68A2
:10176000361D3560564D0C352D68361D3560544D8F
:1017700010352D68361D3560514D14352D68361DD8
:1017800035604F4D18352D684E4E203635604C4D26
:101790001C352D68361D3560494D20352D68361DA8
:1017A0003560474D24352D68361D3560444D28354C
:1017B0002D68361D3560424D2C352D68361D35603F
:1017C0003F4D30352D683F4E403635603C4D343509
:1017D0002D68361D35603A4D38352D68361D35601B
:1017E000374D3C352D68361D3560354D40352D68FB
:1017F000361D3560082904D1050002D1334E324D23
:101800003560082904D1050002D1314EFB25356031
:10181000082908D1050006D192F858622D4A1568AA
:1018200066F303051560082904D1020002D12A4D90
:101830008A012A60082906D128480168C90702D010
:101840006FF0010101602648016841F470010160F8
:10185000BFF34F8FBFF36F8F4FF01021D1F800020D
:10186000002803DBD1F80402002822DA1D4A1460A4
:101870001D480468002CFCD01224C1F80042056801
:10188000002DFCD0C1F8044201680029FCD013608F
:1018900001680029FCD0BFF34F8F11487C380168E4
:1018A000124A01F4E06111430160BFF34F8F00BFA2
:1018B000FDE710490E48086070BD00003805004083
:1018C0000404001020C50040488103008C560040ED
:1018D00018F50040E40E004040960240000400402D
:1018E00088ED00E004E5014000E401400400FA0551
:1018F0000090D003D8010020014800680047000094
:10190000180000202DE9F0411A48D0F804530026B1
:1019100001240FE095FAA5F0B0FA80F7B80000F5C1
:10192000807004F09BFF10B104FA07F0064304FA3C
:1019300007F08543002DEDD1C6F3C05726F400050E
:10194000DFF834800AE000BF95FAA5F0B0FA80F61F
:1019500058F82600804704FA06F08543002DF3D19D
:1019600007F036F8002F03D0BDE8F04103F026B9A8
:10197000BDE8F081007002408090000010B5124C6C
:10198000022012A12061C4E9050104F17801E1619E
:10199000010221620021A1620CA2A2646162E062E4
:1019A00004F51E72E2641022A165C4E91421E06509
:1019B00009A1E01DFEF7D3FD08A12046FEF7CFFDEB
:1019C0002020A07110BD0000E80E00205465726D4B
:1019D000696E616C00000000525454005345474743
:1019E000455200000269C1688A4203D88068401AE3
:1019F000104400E0501A401E70470000C11700EB71
:101A0000D161074B4A1153F8222021F01F01411ADE
:101A100001208840024201D0012070470020704719
:101A200000E100E0002809DB00F01F0201219140E5
:101A30004009800000F1E020C0F8801270472DE9D5
:101A4000F047C4681746894606464FF000083069DB
:101A5000A04201D9051B02E0B168201A0D1AB06836
:101A60006D1E001BA84200D80546BD4200D33D466E
:101A700070682A4620444946FEF746FDB0687F1B41
:101A80002C44A844A944A04200D10024F460002FB3
:101A9000DDD14046BDE8F0872DE9F0410446884697
:101AA000D4E90207C51BE168606816460844B542E0
:101AB00006D94146FEF728FDB819E060BDE8F0817F
:101AC0002A464146FEF720FD761B08EB050132460B
:101AD0006068FEF719FDE660F0E700000FB47CB522
:101AE0000C0009AD01D0611E00E00021CDE900012C
:101AF000064B6A462946089800F030FF002C02D0B9
:101B0000009A002111707CBC5DF814FBB32D00001D
:101B100003B401984100009850EAC12018BF042086
:101B20004A0D18BF40F0010040F2FF72B2EB515F66
:101B300008BF40F00200012808BF052002B070472E
:101B40002DE9F04D2DED040B2DED0E8B96B0DDE95A
:101B50002550279CDDF890A025F0004624F0004891
:101B6000BAF1000F14BF0121002101EB4502FC492D
:101B700053184A1093422AD3002814BF012300238C
:101B800003EB44030B44F7498B4220D358EA00018E
:101B90009FEDF59B76D0DFF8D8B35D4503D1BAF160
:101BA000000F05D188E0BAF1000F08BF002100D076
:101BB000012101EB450111F5001F08D8002814BFD1
:101BC0000121002101EB440111F5001F0BD99DED0E
:101BD000261B9DED240B16B0BDEC0E8B04B0BDE8AA
:101BE000F04D00F069BE0027002DBCBFE1498845DB
:101BF00021DAE1498845A8BF02271CDAC3451ADC6F
:101C0000DE4901EB2851142908DDC1F1340220FA24
:101C100002F101FA02F282420DD108E058B9C1F195
:101C2000140228FA02F101FA02F2424503D101F04E
:101C30000101C1F1020756EA0A0124D1002C22DA7F
:101C4000002D18BF022F01D0012F0AD0022000F072
:101C50007FFE16B0BDEC0E8B04B0BDE8F04D00F079
:101C600013BE022000F074FE00F00EFE51EC100BCB
:101C700081F0004141EC100B16B0BDEC0E8B04B0AE
:101C8000BDE8F08D18E09FEDBEAB9FEDBF8B002847
:101C900071D1B848804522D105F1804010F58010FF
:101CA00008BFBAF1000F07D0B3450ADC002CA8BF6B
:101CB0009DED260BE0DA0DE0B0EE490AF0EE690A80
:101CC000DAE7002C06DA9DED260B51EC100B81F0C3
:101CD00000416FE0AE48784490ED000BCCE7D8456A
:101CE0004DD1002C48DA2EB186423AD1BAF1000F1C
:101CF00042D126E0BAF1000F13D0022000F028FEF6
:101D000000F0F6FD8DED020B9DED240B8DED000B2B
:101D100010EE900A039961F31E0003909DED020BF3
:101D2000AAE78DED02AB9DED240B1AEE901A10EE92
:101D3000900A8DED000B61F31E0003909DED020BE8
:101D40009AE78DED028B9DED240B18EE901A10EEA4
:101D5000900A8DED000B61F31E0003909DED020BC8
:101D60008AE709DA9DED240B51EC190B53EC102B8B
:101D7000FEF7E1FD1EE020E09DED240B7CE78642AE
:101D80001BDAB4F1804F0DD0A4F10050B0F1FF5038
:101D900013D1002D11DB9DED240B51EC100B06F03F
:101DA000F3F807E09DED240B53EC102B51EC100BD6
:101DB00000F0C2BC41EC100B5EE79DED240B51EC32
:101DC000100B03F006F8BAF1000FCDE90E0142D175
:101DD0009FED710B46B3A6F1E040B0F17F600CD0EF
:101DE0005E4538D1002D00DAA7B3022F0CBF0120C9
:101DF0004FF0FF30FEF725FEDCE7002D01DD002C63
:101E00000DDA002D01DD002C1FDB002D16DA002C71
:101E100014DB012F08BF9FED620B3FF42DAFB0EE36
:101E20004A0AF0EE6A0A27E7022F18BF002D0CD0ED
:101E3000012F0AD1002DFFF61FAF06E0002DB8BF1D
:101E4000002C08DA012F3FF417AFB0EE480AF0EE8D
:101E5000680A11E71BE0012000EBE57050EA07017A
:101E600015D0791EB0EE498AF0EE698A084308BFA2
:101E70009FED4D8B4E480025804570DD4D494E4805
:101E8000884514DDB0420DDB002C19DB2FE001206A
:101E900000F05EFD16B0BDEC0E8B04B0BDE8F04D59
:101EA00000F016BDB34502DC002C09DC1FE08642C1
:101EB00002DA002C1BDA03E05E452BDD002C16DD78
:101EC000022000F045FD00F013FD8DED020B53ECF8
:101ED0001A2B51EC180BFEF74BFBCDE900010399CF
:101EE000019861F31E0003909DED020BC4E60220F1
:101EF00000F02EFD00F00CFD10EE901A18EE900A86
:101F00008DED020B8DED008B61F31E0003909DEDB6
:101F1000020BB1E69DED0E0B53EC192B51EC100B9F
:101F2000FEF703FD9FED260BCDE9080153EC102BC6
:101F30009DED080B51EC100BFEF71AFB9FED221BD9
:101F400053EC112BFEF7F4FC9DED081B53EC112B09
:101F5000FEF70EFB9FED1E1B53EC112B3CE08CE0BB
:101F6000FFFF1F00FFFF0F00000000000000F03F18
:101F70000000F03F0000F07F0000404301FCFFFF45
:101F8000000000000000F07F0000000000000000E2
:101F90006E770000000000000000000000000080DC
:101FA000000000000000F0FF000000000000F0BF93
:101FB0000000E0410000F043FFFFEF3F00000000A1
:101FC000000000000000D03F555555555555D53FF0
:101FD000000000000000E03FFEF7AAFC9DED080BAA
:101FE00041EC1A0B53EC102B51EC100BFEF7C0FA1E
:101FF00053EC1A2BFEF7BCFA41EC1A0B9FEDFE0BCB
:1020000053EC102B9DED080B51EC100BFEF7B0FAC2
:1020100041EC1B0B9FEDFA0B51EC1A0B53EC102B00
:10202000FEF7A6FA41EC1A0B9FEDF70B53EC102BC1
:102030009DED080B51EC100BFEF79AFA53EC1A2B9E
:10204000FEF773FC41EC1A0B51EC1B0B53EC1A2BF3
:10205000FEF7CAFB0690CDE906519DED060B53EC49
:102060001B2B51EC100BFEF760FC53EC1A2BFEF708
:102070005FFC41EC100B00F0A1B90020B6F5801F09
:102080000EDA9FEDE30B53EC102B9DED0E0B51EC94
:10209000100BFEF76DFACDE90E016FF034000E461D
:1020A00000EB2650A0F2FF37C6F31300DA4940F0E8
:1020B0007F6646F040568842D8BF002408DDD749E5
:1020C0008142C8BF012403DC0024A6F580167F1CD2
:1020D000D348784400EBC4000F9690ED00CB9DED03
:1020E0000E0B53EC1C2B51EC100BFEF71EFC9DED60
:1020F0000E0B41EC1B0B53EC1C2B51EC100BFEF7A1
:1021000073FB41EC100B51EC190B53EC102BFEF749
:1021100012FC41EC1D0B51EC1B0B53EC1D2BFEF77D
:1021200027FA41EC1A0BBF488DED10AB784410959F
:1021300090ED000B4FF0005040EA660000EB844049
:102140008DED080B00F5002009909DED080B53EC78
:102150001C2B51EC100BFEF7E8FB9DED0E1B53EC16
:10216000112BFEF7E5FB41EC100B53EC102B9DED12
:10217000100B51EC100BFEF7FBF99DED080B41EC39
:102180001C0B53EC102B9DED100B51EC100BFEF7BC
:10219000EFF953EC1B2BFEF7CBFB53EC1C2BFEF79C
:1021A000C4FB53EC1D2BFEF7E3F941EC1C0B53EC85
:1021B0001A2B51EC1A0BFEF7DBF941EC1B0B9A487A
:1021C0000621B0EE4B0AF0EE6B0A784400F0E0FA1C
:1021D000B0EE401AF0EE601AB0EE41DAF0EE61DADD
:1021E00053EC1B2B51EC1B0BFEF7C2F953EC1D2BD0
:1021F000FEF7BEF99DED100B41EC1B0B53EC1A2BB7
:1022000051EC100BFEF7F0FA53EC1C2BFEF7B0F973
:1022100053EC1B2BFEF7E8FA9DED100B41EC1B0B6A
:1022200053EC102B51EC100BFEF7A2F941EC1D0BF7
:102230009FED7FEB53EC1E2BFEF7D6FA53EC1B2BD6
:10224000FEF7D2FA0890CDE908519DED080B53EC4A
:102250001E2B51EC100BFEF768FB53EC1D2BFEF709
:1022600064FB53EC1B2BFEF763FB9DED080B41EC6D
:102270001D0B53EC102B9DED100B51EC100BFEF7CA
:1022800077F941EC1B0B53EC1A2B51EC1D0BFEF7AD
:102290006FF99DED080B41EC1A0B53EC102B51EC30
:1022A0001C0BFEF765F953EC1A2BFEF79DFA41EC77
:1022B0001A0B51EC1B0B53EC1A2BFEF795FA0C90F2
:1022C000CDE90C519DED0C0B53EC1B2B51EC100B7D
:1022D000FEF72BFB53EC1A2BFEF72AFB41EC1B0BF2
:1022E0009FED550B53EC102B9DED0C0B51EC100B8F
:1022F000FEF73EF941EC1A0B9FED510B51EC1B0B15
:1023000053EC102BFEF734F941EC1B0B9FED4E0BF9
:1023100053EC102B9DED0C0B51EC100BFEF728F934
:1023200053EC1B2BFEF760FA41EC100B4848784445
:1023300000EBC40090ED001B51EC100B53EC112B83
:10234000FEF752FA41EC1B0B3846FEF77AFBCDE95B
:10235000080153EC1B2B51EC1A0BFEF745FA41EC2C
:10236000100B3C48784400EBC40090ED00CB51ECDE
:10237000100B53EC1C2BFEF737FA9DED081B53ECAA
:10238000112BFEF731FA0690CDE906519DED080BB1
:1023900053EC102B9DED060B51EC100BFEF7C5FA1C
:1023A00053EC1C2BFEF7C1FA53EC1A2BFEF7BDFAC7
:1023B00053EC1B2BFEF7BCFA41EC100B9DED261BDA
:1023C00053EC102B8DED001B00959DED260B51EC71
:1023D000100BFEF7CDF89DED000B41EC1A0B53EC02
:1023E000102B9DED260B51EC100BFEF79EFA9DED88
:1023F000061B53EC112B2FE0000000604715F73F40
:10240000FE822B654715F73F44DF5DF80BAE543E67
:1024100000000000000040438E9803007AB60B00D5
:1024200062720000187300009A7100000000000042
:102430000000000000000840000000E009C7EE3F77
:10244000FD033ADC09C7EE3FF5015B14E02F3EBE09
:1024500026700000E06F0000FEF78AF853EC1A2B9C
:10246000FEF7C2F99DED060B41EC1A0B53EC102B55
:102470009DED000B51EC100BFEF77AF8CDE90C0145
:102480009DED0C0B51EC1A0B53EC102BFEF7ACF935
:10249000CDE902010C46AA498C422FDB611A0843A0
:1024A00018D19DED0C0B53EC102B9DED020B51EC54
:1024B000100BFEF73AFA41EC1B0B9FEDA30B51EC0E
:1024C0001A0B53EC102BFEF78FF953EC1B2BFEF776
:1024D000C9FA2DD2022000F03BFA00F009FA10EE02
:1024E000901A18EE900A8DED020B8DED008B61F3C2
:1024F0001E0003909DED020BFFF7BEBB944A24F033
:102500000041914214D39349214408437FF4EFAC36
:102510009DED0C0B53EC102B9DED020B51EC100BB1
:10252000FEF703FA53EC1A2BFEF79CFA7FF6DFACAA
:1025300024F000408849894A002601EB205182425C
:102540002BDA481C4FF4801121FA00F02044844A11
:10255000C0F30A517A44A1F2FF3192ED000B814A97
:102560008DED080BCA4020EA0202C0F3130040F4CC
:102570008010C1F1140120FA01F60992002CB8BFB5
:1025800076429DED080B53EC102B9DED0C0B51EC9E
:10259000100BFEF7CAF9CDE90C019DED0C0B51ECC7
:1025A0001A0B53EC102BFEF71FF99FED6F0B0890E1
:1025B000CDE9085153EC102B9DED080B51EC100B9D
:1025C000FDF7D6FF41EC1B0B9FED690B53EC102B75
:1025D0009DED080B51EC100BFDF7CAFF9DED0C0BA8
:1025E00041EC1C0B53EC102B9DED080B51EC100B28
:1025F000FEF79BF953EC1A2BFEF79AF99FED5E1B41
:1026000053EC112BFDF7B4FF53EC1C2BFEF7ECF849
:1026100041EC1A0B51EC1B0B53EC1A2BFEF7E4F8B0
:10262000CDE902019DED020B53EC1B2B51EC100B7D
:10263000FEF77BF953EC1A2BFEF77AF99DED020BAE
:1026400041EC1A0B53EC102B51EC100BFDF790FFE3
:10265000CDE908014A489DED080B0521784400F0BA
:1026600097F89DED081B51EC100B53EC112BFDF767
:102670007FFF9DED021B53EC112BFEF759F9CDE9BD
:1026800006019DED020B53EC1A2B51EC100BFDF7DC
:102690006FFF53EC1A2BFEF7A7F89FED3B0B41ECB5
:1026A0001A0B53EC102B9DED060B51EC100BFEF7A3
:1026B0003CF99DED060B41EC1B0B53EC102B9DEDF3
:1026C000020B51EC100BFDF753FF53EC1B2BFEF7E5
:1026D00032F953EC1A2BFEF728F99DED021B53EC4F
:1026E000112BFEF722F953EC192BFEF721F9CDE956
:1026F000020101EB065001150029C8BF039015DC4B
:102700009DED020B324651EC100BFEF783F9FFF7FB
:10271000FFF9042808BF00F0FBF832469DED020BDC
:1027200051EC100BFEF776F9CDE902019DED020B9D
:1027300051EC180B53EC102BFDF71AFFFFF73ABBC7
:102740000000904000000000FE822B654715973C7A
:1027500000CC904000346F3F01FCFFFF0000E03FE1
:10276000F06E0000FFFF0F0000000000432EE63F68
:10277000396CA80C615C20BEEF39FAFE422EE63FB0
:10278000386D000000000000000000000000004064
:1027900070B504462DED028B4D1E00EBC500B0EE6A
:1027A000408AF0EE608A90ED000B35F0060017D0FD
:1027B00053EC182B51EC100BFDF7DAFE41EC100B2B
:1027C0006D1E04EBC50090ED001B51EC100B53EC9B
:1027D000112BFEF709F841EC100B35F00600E7D19C
:1027E000022D36D0042D1CD0062D1CBFBDEC028B53
:1027F00070BD53EC182B51EC100BFDF7B9FE94EDA6
:102800000A1B53EC112BFDF7EFFF53EC182BFDF7D0
:10281000AFFE94ED081B53EC112BFDF7E5FF41ECE7
:10282000100B53EC182B51EC100BFDF7A1FE94ED9F
:10283000061B53EC112BFDF7D7FF53EC182BFDF7BC
:1028400097FE94ED040B53EC102BFDF7CDFF41ECFC
:10285000100B53EC182B51EC100BFDF789FE94ED87
:10286000021B53EC112BFDF7BFFF53EC182BFDF7A8
:102870007FFE94ED001B53EC112BFDF7B5FFBDEC73
:10288000028B41EC100B70BD9FED070B10B553ECA4
:10289000102B9FED070B51EC100BFEF74CF841ECA1
:1028A000100B10BD00000000000000000000000040
:1028B000000000000000F03F10B553EC112B51EC6C
:1028C000100BFDF791FF41EC100B10BD0000000054
:1028D0009FED050B10B553EC102B51EC100BFEF7D0
:1028E0002AF841EC100B10BD0000000000000000B1
:1028F0009FED050B10B553EC102B51EC100BFDF7B1
:1029000037FE41EC100B10BD00000000000000700D
:102910009FED050B10B553EC102B51EC100BFDF790
:1029200027FE41EC100B10BD00000000000000105D
:1029300002E008C8121F08C1002AFAD17047704788
:10294000002001E001C1121F002AFBD170470000E6
:102950000149086070470000E40100202DE9FF4FA5
:102960008DB00F460546002606E025280BD0DDE990
:102970000F1290476D1C761C28780028F5D111B0F5
:102980003046BDE8F08F0024A246A1460122E94965
:1029900000E0044315F8013F203B02FA03F008422F
:1029A000F7D128782A2810D06FF02F022878A0F1CC
:1029B0003001092914D80AEB8A0102EB410144F0E5
:1029C000020400EB010A6D1CF0E701CF5FEA000A88
:1029D00003D544F40054CAF1000A44F002046D1C0B
:1029E00028782E2817D115F8010F44F004042A285E
:1029F0000ED06FF02F022878A0F1300109290AD8F3
:102A000009EB890102EB410100EB01096D1CF2E7C2
:102A100057F8049B6D1C28786C280FD006DC4C28D6
:102A200017D068280DD06A2814D104E0742810D07B
:102A30007A280FD10DE044F400140AE044F4801425
:102A400001E044F440146978814202D104F5801415
:102A50006D1C6D1C28786E281ED00CDC632830D0CD
:102A600004DC00288BD0582811D19FE0642867D05F
:102A700069280CD164E073282DD004DC6F2872D053
:102A8000702804D194E075286ED078286DD0DDE9E7
:102A90000F129047761C4BE1C4F30250022806D077
:102AA000032809D0042801CF09D0066040E101CFF6
:102AB000F117C0E900613BE101CF068038E1067003
:102AC00036E117F8040B8DF8000000208DF80100A6
:102AD000EB46012003E057F804BB4FF0FF306107DD
:102AE0004FF0000102D40DE008F10101884649458C
:102AF0000FDA8045F8DB1BF808100029F4D108E054
:102B000008F1010188468142FADB1BF80810002910
:102B1000F6D1DDE90F23AAEB08008146214600F03B
:102B200031F9304400EB080604E0DDE90F121BF830
:102B3000010B9047B8F10108F7D221464846F2E070
:102B40000A21C4F302524FF0000B0891022A04D06C
:102B500001CFC117032A09D00AE0FF1D27F007079C
:102B6000F7E8020108E02CE01EE01FE000B2C11708
:102B7000042A01D140B2C117021E71F1000206DA27
:102B80000023D0EB030063EB01012D2202E02205BC
:102B900004D52B228DF82420012203E0E20701D086
:102BA0002022F7E7904653E00A210BE0102109E0CC
:102BB00010214FF0000B44F004044FF00809089175
:102BC00003E008214FF0000B0891C4F30252022ADF
:102BD00004D001CF0021032A06D006E0FF1D27F014
:102BE0000707F7E8020103E080B2042A00D1C0B26F
:102BF0004FF0000822072BD52A78702A07D0DDF87D
:102C000020C08CF0100C5CEA0B0C05D00EE04022CA
:102C10008DF82420012208E050EA010306D0302379
:102C20008DF824308DF8252002229046089B83F0F1
:102C3000080353EA0B030BD150EA010201D16207EA
:102C400006D530228DF824204FF00108A9F10109A2
:102C50002A78582A04D038A20B9208AA0A920BE0CC
:102C60003AA2F9E75B46089AFDF720FD0B9B9B5CB7
:102C70000A9A521E0A92137050EA0102F2D10A987F
:102C8000ADEB000000F1200B600702D524F4803486
:102C900001E04FF00109D94502DDA9EB0B0000E08E
:102CA000002000EB0B0141440890AAEB010AE0036D
:102CB00006D4DDE90F232146504600F063F80644B0
:102CC0004FF0000908E009A911F80900DDE90F1229
:102CD000904709F10109761CC145F4DBE0030CD5EE
:102CE000DDE90F232146504600F04CF8064404E08D
:102CF000DDE90F1230209047761C0899481E089095
:102D00000029F5DC08E00A980A990078491C0A9124
:102D1000DDE90F129047761CBBF10001ABF1010B0E
:102D2000F1DC21465046DDE90F2300F019F8064496
:102D30006D1C21E609280100303132333435363735
:102D400038396162636465660000000030313233F7
:102D50003435363738394142434445460000000097
:102D60002DE9F041044600251E461746880404D488
:102D700005E039462020B0476D1C641EF9D5284671
:102D8000BDE8F0812DE9F041044600251E4690463D
:102D9000C80301D5302700E02027880404D505E0CA
:102DA00041463846B0476D1C641EF9D52846BDE83B
:102DB000F0814A68002A06D00A68531C0B60107024
:102DC0004868401E48607047800701D00020704767
:102DD00001207047C3688B4206D811440069491E20
:102DE000814201D8012070470020704710B572B6AB
:102DF00003F07CFB03F0B8F90028FBD1114812491D
:102E0000401AC408012000EB044010A103F0C4FAEA
:102E100011480068C00700D000BE022000EB04404B
:102E20000EA103F0B9FABFF34F8F0B48E4380168E5
:102E30000E4A01F4E06111430160BFF34F8F00BF00
:102E4000FDE700005C9B0000EC9A000046617461A5
:102E50006C206572726F7200F0ED00E0537973744C
:102E6000656D207265736574000000000400FA054A
:102E70000EB500210091CDE901106A4644F201002F
:102E8000FFF7B4FF0EBD0000014801F0B2BC000026
:102E90006000002038B5114808235822416800918D
:102EA0000F49006802F094FB002815D10D4A6946CD
:102EB0000D4801F0A3FC04000ED101210A4801F0E5
:102EC00009FD0123094A1946074801F06AFC064931
:102ED000012008390870204638BD00002C91000000
:102EE000C00500207579000060000020FFFF7F0012
:102EF00070B505460548046905E02946204601F0FD
:102F0000A1FB20680468002CF7D170BD7C00002074
:102F100070B5094804690CE0267A002505E02946C9
:102F2000204600F0C5FC6D1CEDB2B542F7D3206819
:102F30000468002CF0D170BD7C00002070B50A48F8
:102F400004690DE0267A002506E000222946204685
:102F500000F0ECFC6D1CEDB2B542F6D320680468BD
:102F6000002CEFD170BD00007C00002070B5084936
:102F7000054606200C6907E02946204601F062FB61
:102F8000062803D121680C68002CF5D170BD000023
:102F90007C0000207CB504680B46154694F8201090
:102FA0000C34C90705D0A16929B1206AA0B311204A
:102FB0007CBD08207CBDE16EA9420CD31846A16EF1
:102FC000FDF7A2FAE06E401BE066A06E656728443C
:102FD000A06600207CBDC4E9063201F077FB0546FF
:102FE0000F480069CDE90004E26E6AB1A16EA069E4
:102FF000FDF78AFAE16EE069401AE061A0690844D1
:10300000A0610020C4E91B016946284600F06EFA61
:103010000028DFD192207CBDFFE7C4E90832F9E740
:10302000EC9100003EB50D460168144691F8201061
:1030300011F0010F0BD001F040FBA10609D00021D7
:103040000095CDE90141694600F076FA3EBD0820C1
:103050003EBD0149896AF3E7EC910000F8B50446EA
:1030600000250FE0002705E0007800F053FA08B1D2
:103070001120F8BD3946781CC7B2304600F09CF8E4
:103080000028F1D12946681CC5B2204600F0A6F8F8
:103090000600E7D100250DE0002703E00078214677
:1030A00000F03DFA3946781CC7B2304600F084F88B
:1030B0000028F3D12946681CC5B2204600F08EF8DE
:1030C0000600E9D1074800E0086801680029FBD143
:1030D000046005486946806900906068026820467F
:1030E0009047F8BD8C000020409100002DE9F04F82
:1030F00087B04FF000081D46934689460446DDF828
:1031000040A04646CDF80C8000E0761C60680123A4
:1031100000224768214603A8B8470028F5D1404659
:103120008DF800800027B84601903BE060680123DD
:103130006A46D0F804C0214601A8E0476068012330
:1031400005AAD0F804C0214601A8E0479DF8141054
:1031500049451AD1D84514D19DF80000CAF800009D
:1031600005F8010B6A1C85F8009060689DF8003036
:103170002146456801A89B1EA847002007B0BDE86E
:10318000F08F08F1010000F0FF0860689DF8003042
:103190000022D0F804C0214601A89B1EE0479DF8FC
:1031A00000000744B742C1D30520E7E701480069A2
:1031B000704700007C00002042788A4201D800203D
:1031C0007047827810440844704742788A4201D898
:1031D000002070478278104408447047027A8A427F
:1031E00001D80020704701EB4101093008447047C5
:1031F000027A8A4201D80020704701EB4101093070
:103200000844704702484078002800D001207047E9
:103210007C00002010B5002000F054F9BDE81040FB
:10322000802000F04FB910B5002000F04DF9BDE846
:103230001040802000F048B970B50D46014628784E
:1032400006240B2813D007DC07284CD2DFE800F057
:103250004B0D0F114B2739000C2825D00D2825D0F8
:103260000E282CD085283ED110E0032014E0002445
:1032700039E0244802F0EBF90028F8D02248012177
:103280000160BFF36F8FBFF34F8FF0E71D48001F42
:103290000078032827D1042005F0FEFA23E0084631
:1032A00000F050F804461EE0002005E017480068D2
:1032B00010F0010F03D0022005F0EEFAD7E701204D
:1032C000FAE7EB78032B0ED00E48001D02683AB1E6
:1032D00000210160416818469047040005D000E0D5
:1032E0000E2404F029F8204670BD05F0CDFA28B16F
:1032F000A8780028F7D103F0F4FFF4E703F0EEFF1D
:10330000F1E70000A40000205C7002403804004097
:10331000024A0146D2E90002104700007807002067
:1033200070B50C46054603F0D3FFA84201D010202B
:1033300070BD0348D4E90012C0E90212002070BD3C
:10334000A00000207FB5054605208DF8000006246A
:103350000DF1010003F0C8FF05F096FA294900209D
:1033600008609DF8010010F01F0006D001280FD062
:10337000022826D0032833D106E06946284604F007
:1033800043FC044606282AD16846FFF7EFFD25E0F6
:103390009DF8050003A900F0A7FA050008D06A46C9
:1033A0009DF80C1000F080FA0446062802D016E0C2
:1033B000102415E06A469DF80C10284604F038FDEC
:1033C0000CE09DF80500010705D0694600F058F8AB
:1033D0000446062803D1684604F094FC044624B150
:1033E00003F0AAFF04B0204670BD05F04DFA30B1DD
:1033F00003F06EFF0028F5D103F073FFF2E703F04E
:103400006DFFEFE7A8000020FEB5C08814460E4609
:10341000A04201D2054600E01546844207D2802032
:1034200003F096FDB4FBF0F100FB114068B1002001
:103430000096CDE90150002000F0DCFB69468020B9
:1034400000F07AF8040002D006E00120F0E7054918
:103450008020FFF765FF0446002000F0CDFB2046EA
:10346000FEBD00008891000008B1402101600148C4
:1034700070470000CC07002003F066BC03F080BC5E
:1034800010B50C46010600F00F02092A09D200F01F
:103490000BF8006828B141680A682146BDE8104071
:1034A0001047102010BD0000010600F00F0001D5EC
:1034B000034901E00249483101EBC00070470000B8
:1034C0003007002003F09CBC10B5044600F00F004C
:1034D000082805D2204603F0B5FC204603F068FD1D
:1034E0002046BDE8104003F0BBBC000070B50C46A0
:1034F000054603F0F5FC18B105480078022801D014
:10350000082070BD21462846BDE8704003F0EABCA3
:103510007C00002010B5FFF7C7FF006810BD10B594
:103520000C46FFF7C1FF04601CB161680968416087
:1035300010BD0021FBE7000070B50C46054603F006
:10354000CFFC18B105480078022801D0082070BDD2
:1035500021462846BDE8704003F05ABD7C0000209B
:10356000F8B5044600782A4D05280BD12948006893
:103570002849C0B2091F096811F0FF0F04D10528BE
:1035800002D1254C207818B3234F6946243F386A6E
:1035900002F031F806001AD020683060002000F0F8
:1035A00029FB6888E968401A401CF080184800210F
:1035B0000C3002F05DF8B080002000F01DFB694681
:1035C000386A02F039F80146204605F033FCF8BDB0
:1035D000AE6905E031686088896888473068466868
:1035E000002EF7D1002000F005FBE86808B96088DC
:1035F0006880074801210C3002F02FF8002000F00D
:10360000FBFA0121204605F015FCE868F8BD000032
:103610007C000020847402406491000070B5774CF7
:1036200005460178207809297BD008DC092979D260
:10363000DFE801F06A84B28D9FBBC283D700822984
:1036400027D017DC0A296ED00F296DD080293BD0F6
:10365000812972D16A48FFF75BFE6948FFF748FC91
:103660000D2005F0F5FBFFF753FCFFF7D3FD606974
:1036700050B906E0832931D0842937D085295CD11F
:1036800093E06048007A00B1012003F059FE012068
:103690007EE0FFF73DFC03F079FE002004F0F6FC2D
:1036A0005748401CFFF724FC5548401CFFF730FEEC
:1036B0000E2005F0CDFB207800F082FA00283CD0E7
:1036C000BDE8704002F05EB8052803D0062803D09C
:1036D000072832D102205BE0082059E003282CD1D2
:1036E00003F078FE002828D0042051E0032805D1FB
:1036F00003F070FE10B1042004F0C8FC03F0C6FE15
:1037000000281AD0062043E0032801D0082803D15E
:103710003B48801CFFF782FF002005F099FB64699D
:1037200009E060E009E060E044E02946204600F05E
:1037300089FF20684468002CF7D170BDFFF7E8FBD3
:10374000FFF771FD022004F0A1FC012005E008282C
:1037500009D0052004F09AFC032005F079FB2846E7
:10376000FFF7D6FD44E0022004F090FC03F05AFD80
:10377000F2E7032005F06CFB2148C01CFFF7C8FDF1
:103780001F48C01CFFF7B4FB20780628A2D10720F1
:10379000BDE8704004F07ABC032004F077FC0220FE
:1037A00005F056FB2846FFF7A3FB2846BDE870400E
:1037B000FFF7AEBD0F2019E0A878FFF775FED0E93E
:1037C00000232946104698470028B6D0A87801075C
:1037D000B3D000F00F010829AFD2BDE8704003F06C
:1037E000C3BB082002E0092000E00A2005F030FBFE
:1037F0002846BDE87040FFF77BBB00007C0000203E
:1038000051910000C0070020FFF7AABEF8B5214C77
:1038100000250095204EA0684FF4006728B9211DAF
:10382000306A01F0FEFEA060C0B1818869B1C18834
:10383000B94200D3C580C188ADF80210C188491CC7
:10384000C1808188491E81801FE0FFF7E7FE114992
:10385000306A091D01F0DAFEA56019E0E068002871
:1038600017D0002000F0C6F96088B84200D3658008
:103870006088ADF80200401C6080064801210C30D1
:1038800001F007FF002000F0B7F96846FFF7C6FE19
:103890000120F8BD7C000020409100000148FFF7A6
:1038A0005FBE00004091000011464268136818474F
:1038B00070B5044640680D46C2680AB1204690477C
:1038C00020462946FFF78AFC05464678002408E092
:1038D00021462846FFF770FC007803F091FA641C3B
:1038E000E4B2B442F4D370BD2DE9F04180460E48F5
:1038F0000E46056914E02F7A00240DE02146284683
:10390000FFF76CFC0178414504D106B134702846BC
:10391000BDE8F081641CE4B2BC42EFD328680568BE
:10392000002DE8D10020F3E77C00002070B50446AC
:10393000406815460E4683681BB120469847062806
:1039400003D1204631460DB1072070BDFFF746FC7C
:1039500005464678002408E021462846FFF72CFC5F
:103960000078FFF7B1FD641CE4B2B442F4D3002048
:1039700070BD034600205A681269002A01D018461B
:10398000104770472DE9F8432E4C054608234FF4A5
:1039900084722B49206A01F01BFE10B10320BDE8A0
:1039A000F883294803F044FC0028F8D1274908701F
:1039B0000861486148212648FCF7BFFD244848219A
:1039C0004830FCF7BAFD224878307DB195E80E000A
:1039D000183080E80E00002001F058FF18B185284B
:1039E00001D0FFF745FA1B4D002611E004F1380124
:1039F0000EC9EDE7002703E000782946FFF78FFDA9
:103A00003946781CC7B24046FFF7D6FB0028F3D1F1
:103A10003146701CC6B22846FFF7E0FB5FEA00089B
:103A2000E8D1606800906946284600F00BFE04006B
:103A300003D003F023FD2046B1E70020AFE70000EC
:103A40002806002040910000093800007C0000207A
:103A500030070020C891000030B1012807D00228AB
:103A600008D10548FFF77CBD03480838FAE702484B
:103A7000001FF7E7704700007091000010B503F0D9
:103A80001FFC10B103F012FC08B1082010BD04485F
:103A900001F010FF08B1FFF7EBF9002010BD0000A6
:103AA0007491000070B50C460F4901EB800555F884
:103AB0002400017831B10020FFF7D6FC002255F830
:103AC000241006E0801C70BD521CD2B2491C20F8A4
:103AD00012300B78002BF7D1022101EB4201C9B261
:103AE00041F44071018070BDBC00002070B54FF002
:103AF000805086B0D0F8A810D0F8A40089B241F464
:103B00004043009009A20D2101A8FDF7E7FF01AD98
:103B10000024094E02E0285D3055641C2846FCF75D
:103B200017FDA042F7D806B070BD0000253034580C
:103B3000253038580000000030080020074803E016
:103B4000016811F0010F07D00168C1F3400100299D
:103B5000F6D00348FFF704BD70470000380400406A
:103B600045910000034808B5806800906846FFF75B
:103B7000F7FC08BD4091000030B44FF0000180B167
:103B80000D4B002213F8124084420ED103EB420089
:103B9000407870B1094A02EB800252F8212042B10C
:103BA00000E0002030BCFFF77DBF521CD2B2062AD5
:103BB000E8D330BC002070476F920000BC000020AA
:103BC000092808D2DFE800F0070705070705050503
:103BD00005000120704700207047092808D2DFE85F
:103BE00000F00707050707070707050001207047D2
:103BF0000020704700F002B800F008B872B6024822
:103C00000168491C016070475000002003490868A2
:103C1000401E086000D162B67047000050000020CE
:103C2000102802D31038C0B2704740F080007047AF
:103C30002DE9FC410646C0074FF000050ED0104F9D
:103C400000240122385D009500231146019502F001
:103C5000FDF8641C042CF4D300F03AF8B0070DD53D
:103C6000074E0024361D0022305D032300951146C7
:103C7000019502F0EBF8641C042CF4D3BDE8FC8140
:103C80000C900000094908B5085C0090684602F0F5
:103C90004BF9D0F80425009B0121994021EA020349
:103CA000C0F808351140C0F80C1508BD0C90000094
:103CB0000249085C012102F06BB900000C90000081
:103CC0000249085C002102F063B900000C9000007A
:103CD00010B500242046FFF7EBFF641C042CF9D339
:103CE00010BD00002DE9F0470546861C91460F46A1
:103CF0004FF0010A0020FFF77DFF1B4C04F21C4827
:103D000060683860D4E90101184F401A3968081A10
:103D10000EE00121404601F0A0FC01F0BDFA014691
:103D2000404601F09AFCD4E90101401A3968081AAA
:103D3000401C8642EDD8B9F1000F03D0052065F391
:103D4000891002E0062065F39F5061683A681140CF
:103D500004EB8101C8606068304460600020FFF7B8
:103D60004BFF5046BDE8F087C80A002084010020C0
:103D700070B50D4604460A2902D10D21FFF7F8FF60
:103D8000A0682268411CA1601554D4E90101814258
:103D900004D32046BDE8704001F0D5BD70BD0000E1
:103DA000044881684068814201D1012070470020A9
:103DB00070470000C80A00204360CA699A420DD3C8
:103DC0008A690260886918448861086F1844086726
:103DD000C869C01AC86100D00120704701F12802EB
:103DE000026000208B67704770B506460878002493
:103DF0000D460F2838D2DFE800F038083838370C85
:103E000011373732373838383800304600F075FB14
:103E10002BE02946304603F0BFFF0FE0304600F0AC
:103E200037FC0146A878002481421ED00106E978BB
:103E30004FF0030004D531B901210CE0044614E031
:103E400021B1012911D00329F8D10EE0304600F04C
:103E500063FB04460021304604F0F4FF05E0032133
:103E6000304604F0EFFFD0E70624204670BD000086
:103E70002DE9F05FDFF858960C7A054689F8004086
:103E80000068164688464FF0000A40F24632544613
:103E90001F46A0F246314FF0020B904273D056DC21
:103EA000B0F54A7F70D02BDC4FF4467290426CD054
:103EB00013DC40F21531A0F21533884273D007DCD1
:103EC000A8B3A0F5407013386ED0012871D18BE0F3
:103ED000012B6BD0022B6CD1ACE040F22131A0F26F
:103EE0002132884271D006DCA0F5407019386DD0BF
:103EF00001285ED1C5E0012A69D0062A59D1EBE03C
:103F000040F23632A0F23631904278D015DC40F2E1
:103F10002F31A0F22F32884271D009DCA0F5407019
:103F200029386DD004286CD0052842D11AE145E02B
:103F3000052A67D0062A3CD141E1C91F092938D298
:103F4000DFE801F0F837373737F7F6F5F4001329D3
:103F50006FD00DDCA1F1030110292AD2DFE801F0B6
:103F6000F6F5F4F3F22929F1F0EFEE2929EDECEB67
:103F700037290FD00FDC292973D007DC142971D021
:103F8000282916D117E263E1B1E05EE02D296AD05D
:103F900032290ED13FE2442971D008DC3E296FD08E
:103FA0003F2906D158E22EE012E002E036E049292E
:103FB000F2D00020C5F800A0BDE8F09F08202871CD
:103FC000002F05D840F213300CE068E04CE071E0BF
:103FD0000EB1287930700B2001242871012F03D8ED
:103FE0004FF4457028602EE00EB12879305598F8CE
:103FF0001400641C2871BC4205D3296023E0BDE095
:1040000082E0A4E0D0E00EB128793055641C85F838
:1040100004B0BC4202D340F21630E3E70EB1287977
:104020003055641C85F804B0BC4203D340F217300D
:10403000D8E79FE10EB128793055641C85F804B0AB
:10404000BC4202D32A600120B6E70EB12879305570
:1040500098F81900641C2871BC4205D340F219304D
:10406000C0E7B3E192E1C4E10EB128793055641C98
:1040700085F804A0BC4204D340F21A30B2E7FFE155
:10408000DFE10EB12879305589F801A0641C09E2FE
:1040900009202871BC4202D340F22130A2E70EB1C0
:1040A000287930550420641C2871BC4202D340F2A8
:1040B000223097E70EB12879305599F80110404623
:1040C000641CFFF795F8C9F8040000782871BC4219
:1040D00002D340F2273085E70EB128793055641CB1
:1040E00085F804A0BC4202D34FF44A707AE70EB1BF
:1040F00028793055D9F80400641CBC4240782871F6
:1041000002D340F229306DE70EB128793055D9F845
:10411000040098F81410641C0078814239D185F8A5
:1041200004B0BC4213D340F22D305BE785E079E068
:104130006DE061E04EE011E105E1F9E0EDE0E1E084
:10414000D5E0C9E0BCE0AFE0A3E097E08BE00EB1C2
:1041500028793055641C85F804B0BC4202D340F283
:104160002E303FE70EB12879305598F81900641CBD
:104170002871BC4202D340F22F3033E70EB12879C8
:104180003055641C85F804A0BC4223D340F23D3076
:1041900028E798F816108142F4D10A202871BC4211
:1041A00002D34FF44D701DE70EB128793055641CD1
:1041B00085F804A0BC4202D340F2353012E70EB1BC
:1041C00028793055641C85F804A0BC42D6D340F24F
:1041D000363007E70EB128793055D9F8040098F841
:1041E0001410641C0078814275D105202871BC42EE
:1041F00002D340F24230F5E60EB128793055242042
:10420000641C2871BC4202D340F24330EAE60EB18E
:1042100028793055641C85F804A0BC4202D34FF4C1
:104220005170DFE60EB1287930551020641C2871DA
:10423000BC4202D340F24530D4E60EB12879305565
:104240000120641C2871BC4202D340F24630C9E60A
:104250000EB1287930550520641C2871BC4202D368
:1042600040F24930BEE60EB1287930552420641C56
:104270002871BC4202D340F24A30B3E60EB128792D
:1042800030550120641C2871BC4202D340F24B30EF
:10429000A8E60EB1287930550320641C2871BC4271
:1042A00002D34FF453709DE60EB12879305598F83B
:1042B0001600641C2871BC4202D340F24D3091E6D6
:1042C0000EB1287930550420641C2871BC4203D3F8
:1042D0004FF4547086E65DE00EB128793055242005
:1042E000641C2871BC4202D340F251307AE60EB110
:1042F00028793055641C85F804B0BC4202D340F2E2
:1043000052306FE60EB128793055641C85F804B040
:10431000BC4202D340F2533064E60EB128793055E6
:104320000520641C2871BC4202D340F2563059E685
:104330000EB1287930552420641C2871BC4202D368
:1043400040F257304EE60EB1287930550620641CF5
:104350002871BC4202D34FF4567043E60EB128795F
:10436000305598F81400641C2871BC4202D340F206
:10437000593037E60EB12879305598F81600641C8C
:104380002871BC4202D340F25A302BE60EB1287994
:104390003055641CD9F804104846497889F8021051
:1043A000514689F803A075E007202871BC4202D36A
:1043B00040F26E3016E60EB1287930550520641CA7
:1043C0002871BC4202D340F26F300BE60EB128795F
:1043D000305599F80310641CD9F80400FEF7F5FE77
:1043E000C9F8080000782871BC4202D340F273304B
:1043F000F8E50EB128793055D9F8040098F8141072
:10440000641C0078814211D103202871BC4202D380
:104410004FF45E70E6E50EB128793055641C4020FB
:104420002871BC420DD34FF46170DBE598F816108B
:104430008142F4D185F804B0BC42ECD340F27D3027
:10444000D0E50EB128793055641C85F804A0BC4233
:1044500002D340F28530C5E50EB128793055D9F840
:10446000040098F81410641C0078814224D1D8F814
:104470002000BC420078287102D340F28A30B1E5B6
:104480000EB128793055641C99F803104846491C30
:1044900089F803108278C9B2914285D34178491CCA
:1044A00089F8011099F8011099F800008142FFF491
:1044B000EFAD40F29A3095E598F816108142E3D1BD
:1044C00085F804A0BC42DBD340F28F308AE50000BF
:1044D000B000002008B103207047086810F80C1FD6
:1044E000202901D006207047D0F80210C160C18891
:1044F0000182017A8174002070470268002102F174
:104500000C0011845162D1629167D16741673432E6
:1045100082668167704700002DE9FC470468814688
:104520000C3400F0D3F807462F4800268068CDE908
:104530000004E069B0B1D4F878804546404500D227
:1045400005462A4604F12801A069FBF7DDFF206F2C
:104550002844C4E91C60A8EB0500E0666019283017
:10456000A06627E0206F60672667E666216A30460E
:1045700021B1626AA161C4E907202CE0A06130E0AA
:1045800004F11802616A82E84300E26E1AB38A42BB
:1045900015D3A36E0A461946FBF7B6FFE16EE06934
:1045A000091AE166A16E0144A166606700214846D0
:1045B00004F048FC206A0028E2D1A66111E0A16E57
:1045C000FBF7A2FFE06E2067E169091AE161A169CA
:1045D0000818A06105D069463846FEF787FFBDE898
:1045E000FC870020FBE70000EC9100004360CA69F3
:1045F0009A4204D38A6902600B67CB6103E001F140
:10460000280202608B6700207047000041B1012939
:104610000AD0022908D1012204490548FEF7BABC94
:1046200002490120C91E08707047000004000020E4
:10463000BC8F00000249084490F930007047000028
:104640000C030020426812681047000070B5084C47
:10465000050009D010342168002907D008682060BF
:10466000496828468847F6E70834F4E770BD00003B
:10467000F8020020054A012120B1012805D19170DE
:10468000FFF7E4BF51700020FAE77047F8020020FE
:1046900010B50021FEF7ACFD0021FEF796FD007875
:1046A00010BD10B5D0E90234D1E90220D11AA041E1
:1046B00001D3012010BD002010BD10B50121FEF76F
:1046C00097FD0021FEF781FD007810BD10B5012196
:1046D000FEF78EFD0121FEF778FD007810BD000089
:1046E0002DE9FF410C4620B14FF4064004B0BDE86F
:1046F000F0812079002748F2096538B141F61D564E
:1047000001281BD0022826D0681DEFE70220207167
:1047100002970397E0680190694601A803F08EF8BC
:1047200050B102988188E18000882081BDF8001096
:10473000029803F001F9D9E72846D7E70A4B6A4601
:104740000021A01D03F032F838B1074918398F61F4
:10475000CF61A842CAD13046C8E703488188019892
:1047600003F0EAF8F5E700006001002010B5002131
:10477000024800F07DFF80F3100010BDE40E002021
:104780004FF480328A400168C1F848230068C0F8BD
:10479000082370474FF4A07202EB810189B200F048
:1047A0000EBB2DE9F04105460E464FF4A07000EB1C
:1047B000860081B228684FF48034B440984622F0D5
:1047C0007F47C0F808432868C0F84843286801F0CC
:1047D00086FF286800EB8600C0F840752868C0F89E
:1047E0004443B8F1000F02D02868C0F80443BDE884
:1047F000F0810068D0F804057047000070B5437977
:10480000234C44F823204279231D03EBC202224C9F
:104810001579204A121BD4082DB10825022000EB7F
:1048200004401EA130E005680A88C5F8082590F903
:1048300004208978002A4FEA411104DB02F1E022CA
:1048400082F8001405E002F00F0202F1E02282F883
:10485000141D90F904100122002909DB01F01F0545
:1048600002FA05F54909890001F1E021C1F800517A
:104870004179002503EBC1010A71417943F8310008
:10488000032000EB04400EA101F086FD284670BD18
:10489000D40000201C9B0000EC9A000052544320DE
:1048A000696E7374616E636520616C7265616479B1
:1048B00020696E697469616C697A65642E00000014
:1048C0005254433A20696E697469616C697A65640F
:1048D0002E0000000A46022100F068BA4FF48271EF
:1048E00000F06DBA00680121016070470068012185
:1048F000416070472DE9F05F07460C464FF4A07009
:1049000000EB84001FFA80FA38684FF48036A64026
:104910009B4622F07F45C0F848633868C0F80863BA
:104920003868D0F8048500EB8402D2F84095C2F8CC
:1049300040855146386801F0D2FEA9EB080020F00E
:104940007F40012806D1102002F05CF851463868FB
:1049500001F0C5FE3868D0F80485C0F84463A5EBC3
:10496000080121F07F413868012900EB840010D054
:10497000C0F840553868D0F804156FF07F4C6A1ABB
:10498000521E22F07F42ACEB0B03934217D362B16D
:1049900018E06D1CC0F84055102002F033F838685C
:1049A000D0F8040540450AD10CE000EB84006D1CF2
:1049B000C0F840553868D0F80405884202D00D2070
:1049C000BDE8F09F01223146384600F0EFF90020A3
:1049D000F6E76FEA0061C90F61F31F10704700002E
:1049E0000106044900D5903100F00F0001EB0010E2
:1049F000704700007803002001F0ACBE812001F078
:104A0000D7BE822001F0D4BE832001F0D1BE842025
:104A100001F0CEBE852001F0CBBE862001F0C8BEDD
:104A2000872001F0C5BE000038B5882503F0C2FF1D
:104A30002846FFF7D5FF817B0124032915D00068A4
:104A4000002811D12846FFF7C4FF8440E1430C48F9
:104A500001F03AFF0B480A49806800900C398DF844
:104A6000025049686846884738BD2846FFF7B1FFBD
:104A70008440E143BDE83840014801F025BF000013
:104A80004C0000204C90000038B503F093FF00204C
:104A9000FFF7A6FF817B0124032906D0006870B1CF
:104AA000BDE838404C2001F0FBBE0020FFF791FF2D
:104AB0008440E143BDE83840094801F005BF0020CB
:104AC000FFF787FF8440E143054801F0FDFE0548FC
:104AD0000349C0680C39009049686846884738BD6A
:104AE0004C0000204C900000012001F07DBE02200F
:104AF00001F07ABE032001F077BE042001F074BEFD
:104B0000052001F071BE062001F06EBE072001F005
:104B10006BBE000038B5082403F04CFF2046FFF7B9
:104B20005FFF817B032915D00068002812D1204641
:104B3000FFF74FFF01218140C943074801F0C4FE40
:104B400006480549406900900C398DF802404968D3
:104B50006846884738BD00004C0000204C9000009B
:104B600070B50E4804680460BFF36F8FBFF34F8FBA
:104B700001260CE094FAA4F0B0FA80F52846FFF77D
:104B80004FF806FA05F18C43294604F0BBF8002CD7
:104B9000F0D1BDE8704003F01BBF00006C74024010
:104BA00010B5054CA078FFF714FF0146A078BDE8CA
:104BB000104004F0A7B8000040000020F8B51A48E3
:104BC00000681A4DC6B2A878FFF703FF012404FA63
:104BD00000F12889EA68C04380B21043014202D044
:104BE000A87803F0E9FF06F08000A8700020FFF726
:104BF000F0FE04FA00F68020FFF7EBFE04FA00F066
:104C000006430A48F1430C3001F05EFE8020FFF7B6
:104C1000E0FE8440A86804430548AC60006A009048
:104C2000696868468847F8BD8074024040000020EB
:104C30004C90000038B5002000900F480068ADF897
:104C400002008820FFF7C5FE012505FA00F40A4896
:104C50006038006840B1C10301D4401C04D0082072
:104C6000FFF7B7FE85402C430449886820438860DD
:104C700049686846884738BD2075024040000020DA
:104C800070470000F8B518480568284601F0F6FDA1
:104C9000BFF36F8FBFF34F8F144E154CE80506D549
:104CA00001206070706A0090616868468847A805B6
:104CB0004FF0000705D56770B06A009061686846DC
:104CC000884768050ED5607800280BD067700949C1
:104CD00001200860582001F0E3FDF06A009061684F
:104CE00068468847F8BD0000007402404C90000000
:104CF0004000002008750240054908B500204870B2
:104D0000887004484068009049686846884708BD34
:104D1000400000204C90000010B503780022072BC3
:104D200006D2DFE803F005040610202930000A70DF
:104D300010BD01230B7003898B818388CB81C068F0
:104D400088600A7410BD02220A7002898A818288F2
:104D5000CA81C2688A60807D062802D0002008745B
:104D600010BD0120FBE703220A70C2888A810289F4
:104D7000CA81C068886010BD04230B70C088888118
:104D8000CA818A6010BD0520087010BD70B5064D3F
:104D90000646002455F8241009B130468847641CA3
:104DA000042CF7D370BD00005C0800200368C3F832
:104DB0004413002A02D00068C0F80413704710B5ED
:104DC000006842581AB101F08AFC012010BD002091
:104DD00010BD82B0CDE9000121F0004001909DEDB1
:104DE000000B02B051EC100B7047406802F08CBC15
:104DF00070B510B14FF4064070BD1C4C0025207BEF
:104E000008B1257301E000F0A5F8207808282AD21F
:104E1000DFE800F02904080C10291422BDE87040D6
:104E200000F026B8BDE8704000F082B8BDE87040E0
:104E300000F064B8BDE8704000F040B80620207073
:104E400060880A4900EB8000283901EB8000406847
:104E5000BDE8704002F052BB072020706560BDE8DD
:104E6000704002F059BB48F20E6070BD200900206E
:104E70001149F0B48A1C00200346A1F128050C1842
:104E8000A67A4EB1A37200EB800405EB8404E668B9
:104E900016B9247C012C0AD0401C80B20228EED323
:104EA0000B704B804B60F0BC41F61D50704710807A
:104EB000F0BC00F03DB80000200900200C484188FB
:104EC00001EB8102A0F1280101EB8201CA6852B115
:104ED0000521017007480221818001680023012219
:104EE000054800F029BE042202704968F6E7000078
:104EF0002009002070010020E801002038B50A498F
:104F0000084803240B684268898803EB81015388B1
:104F10000470DB1C00201B0400909B0B034800F076
:104F2000A7FE38BD2009002070010020E801002004
:104F3000074910B54888091D02F0D0FC18B1BDE83A
:104F40001040FFF7DBBFBDE81040FFF7B7BF000020
:104F50002009002070B5194C0121207808281AD2A8
:104F6000DFE800F00419191C252929182089134AA3
:104F7000401C2081002060802073283A00EB8003D1
:104F800012F8233043B100232518401C80B2AB72C5
:104F90000228F3D3217070BD0123F5E7606808494A
:104FA00040888A88C01C10448880022004E000F0F9
:104FB00009F8062000E00720207070BD20090020BD
:104FC000700100200A4909484988026801EB810301
:104FD0000749283901EB83014B6803604A608288E6
:104FE0000A8102228280002008747047700100202C
:104FF0002009002010B50B48FFF7FBFB094A083ACF
:10500000D2E90434C018D2E9063244F10001C31ACF
:1050100071EB020204D24FF08072801841F100015E
:1050200010BD000060000020428800EB82020C32BC
:105030008A4201D9022070478188A1F57F42FF3A58
:1050400006D0018821B18068401C01D00020704743
:1050500001207047884204D20068401C01D0012022
:1050600070470020704700002DE9F0412D4F0025CA
:1050700020B17D604FF40640BDE8F081087901223F
:1050800058B1294E01280CD0264C4FF002080834A4
:10509000022820D0032841D127E00A7102F03CFA0F
:1050A0003AE0002000EB800116F82110022908D018
:1050B000401C80B20228F5D33A707D6041F61D5045
:1050C000DAE700EB800006F8205006EB800040682D
:1050D00002F014FA20E00D71A4F8048000230122EC
:1050E0001248216800F028FD16E00D71206802F0DA
:1050F00005FA0D4923682831498801EB810206EB46
:105100008201D1F804C0C4F800C04B60A3880B81B1
:10511000A4F8048006F822500028ADD07D6048F243
:105120000D60A9E768010020F8080020E8010020D0
:1051300010B54FF48041002001F0ACF908B1FDF743
:1051400097FE00F059FB08B1FDF792FE002000F039
:1051500079FB00BF00F06EFB0028FBD0FDF79AFE44
:1051600008B1FDF785FEFEF7C1FC0B48FEF70AFC0F
:1051700008B1FDF77DFE08483438FDF76FFF08B130
:10518000FDF776FEFEF77AFC002803D0BDE810405C
:10519000FDF76EBE10BD0000F08F00002DE9FC5F32
:1051A0000E008346DDE90C47C6F1000098469246A2
:1051B000814600D40846012503E000BF90FBFAF0C9
:1051C0006D1C5045FADAA84500D9454624B1002E99
:1051D00001DB780700D5641EB80702D5B8F1000FCF
:1051E0000AD0F80708D13CB1A54205D22021584683
:1051F000641EFEF7BDFDF6E7002E02DA4E462D21B5
:1052000002E0780703D52B215846FEF7B1FD07F0E1
:10521000030002280BD1B8F1000F08D13CB1A54220
:1052200005D230215846641EFEF7A2FDF6E7CDE90F
:105230000047434652463146584603F0CBFABDE894
:10524000FC9F024600201268530713D502F00300AA
:10525000012802D002280CD105E0C2F383100B68AC
:10526000801C184404E00223086803EB92521044A7
:10527000086001207047800701D00020704701209E
:1052800070470268134602E08A4204D01268002A7E
:10529000FAD10B60016070472DE9FF4100262448D8
:1052A00000F0D8F92248001F074600F0D3F9214C3E
:1052B0002149A06800900D6800E0009869462840E8
:1052C00004EB80000C30FFF7BCFF0028F5D101AAE9
:1052D000009901EA050304EB8303491CDB6842F8EB
:1052E0002030401C00910228F2D3019800F0030006
:1052F00001280BD0022810D10198032101EB905016
:105300000099BDF80A6001EB900005E00198BDF836
:105310000A60C0F3831008440090384600F097F903
:1053200008B10098A06004B03046BDE8F0810000EC
:10533000E00E0020C80A0020840100201CB52020B7
:1053400000F0B8F804460120FEF772FC4FF48041EB
:10535000002001F09FF808B1FDF78AFD00F0F6FE8D
:105360003C483D494FF0030A401AC1080AEB01408E
:1053700005463AA101F010F800F0F6FE0028FBD136
:1053800002F0DAFFFFF7D4FE4FF0010900234E468A
:105390004A4619461846CDF80090FBF72BFD010050
:1053A0004FF47A7020604FF0640060604FF4F57045
:1053B00020814FF00F0060814FF0000884F80C80CE
:1053C00084F80D8084F80E802A48206126752846CE
:1053D00001D029A100E02DA100F0DEFF324D334FB6
:1053E000B5F1030600F0C0FE0028FBD1FEF70EFA6F
:1053F0000028FBD1307858B32878012806D187F8E7
:105400000090012229492A48FDF70CFE287803283C
:1054100012D187F800A0012224492548FDF702FE99
:105420002046FBF7DBFECDF80080082269462048C5
:10543000CDF80480FDF7F6FD01221B491C48FDF75D
:10544000A9FD0028D8D00120FEF71CFC86F80080BA
:1054500020BFCBE75C9B0000EC9A000057697265A7
:105460006C6573732053656E736F72205374617231
:105470007465640040FBFF004144353933332043F9
:105480006F6E6E65637465640000000041443539D9
:10549000333320436F6E6E656374696F6E204661AF
:1054A000696C656400000000040000208402002094
:1054B000BC8F0000F0B50B30154D20F00701002423
:1054C000144A0FE003688B420BD38B4205D95E1A56
:1054D00043184768C3E9006700E04368136002C0EF
:1054E00004E0021D10680028ECD12046002802D1FB
:1054F000286808B10020F0BD064A07481060074A36
:10550000121A22F00702C0E9002401202860D7E720
:10551000E0010020DC010020741100207031002027
:105520002DE9F047C5881E1DB6FBF5F78946B6FB89
:10553000F5F1044605FB176C407916686843DDF801
:1055400020A0F718001F874200D9C61A166001E094
:105550002468491E0029FBD1A5EB0C078846B742F9
:1055600016D818E004EB0C00001D09EB0803BAF193
:10557000000F3A4602D00146184600E01946FAF7F5
:10558000C3FF2468F61B4FF0000CB844B54201D9A4
:10559000374600E02F46002EE4D1BDE8F08700003A
:1055A00030B5024651B100F089FF0021074C08E0F8
:1055B00034F821301568AB4202D11160002030BDB3
:1055C000491C8142F4D3052030BD000000000000DA
:1055D00010B531B1B2FBF3F403FB14241CB1092064
:1055E00010BD0E2010BD01600021416081608281EC
:1055F000C381084610BD70B50C460546FAF70AFF90
:10560000002802D021882868084470BD10B50A8897
:1056100049888A4203D1FAF73FFF012010BD0020DC
:1056200010BD70B50C460546FAF719FF002802D0E8
:1056300061882868084470BD10B50A8849888A4284
:1056400003D1FAF703FF012010BD002010BD002197
:1056500000F009B8012100F010B808B56A46FAF761
:1056600080FE009808BD08B56A46FAF760FE08BDDE
:1056700008B56A46FAF742FE08BD08B56A46FAF769
:1056800049FE009808BD08B56A46FAF777FE00980B
:1056900008BD08B56A46FAF793FE009808BD70B5D4
:1056A000044600252846FEF7A5FA216862680868C6
:1056B00090420ED9401E08600178238AE26801FBFF
:1056C0000325227A2168101AC0B20A79824200D2D8
:1056D00008710020FEF790FA284670BD70B50546A7
:1056E0000C460020FEF786FAE868298A201AB0FBEB
:1056F000F1F12A681068431C13600170BDE8704026
:105700000020FEF779BA10B530B1017A426803681B
:10571000891AC9B21A6006E00E2010BD03681A6823
:10572000541C1C601170491EC9B2F7D200680021D8
:105730000171084610BDC20800F007030120895C12
:1057400098400840704700F180400068002800D071
:105750000120704708B500F1804000210160006819
:10576000009008BD2DE9F041040007D0044E4FF42D
:105770007A47751C3846A847641EFAD1BDE8F08107
:105780003093000010B50020FEF734FA074C606833
:10579000401E6060606818B901F0C2F800206070B7
:1057A000BDE810400020FEF727BA0000F8020020F4
:1057B00070B5104D0446687838B114B161680020A6
:1057C00088470020FEF716FA0CE00020FEF712FAD8
:1057D00024B1084821460830FFF753FD686808B92E
:1057E00001F092F86868401C6860BDE870400020D5
:1057F000FEF702BAF802002070B50C4C01252078A3
:1058000008B185260BE00020A06060602061E060A8
:10581000074801F0A3F8064601F05CF8257001F096
:105820004BF800B1A570304670BD0000F8020020B2
:105830007546000002480068C0F300407047000051
:105840001804004070B5104D0446A87838B114B162
:105850006168012088470020FEF7CCF90CE00020A9
:10586000FEF7C8F924B1084821461030FFF709FDBA
:10587000E86808B901F0AEF8E868401CE860BDE8E7
:1058800070400020FEF7B8B9F802002010B5074CB0
:10589000217809B1852010BD00B9054801F0C2F892
:1058A0000028F8D10121217010BD00002000002047
:1058B0004090000010B5044600F007F8204601F0C3
:1058C0002DF901F024F9002010BD10B501F018F9F0
:1058D000BDE8104001F02CB92DE9F04106460478EE
:1058E0000B4815460F4640F82420083040F8243075
:1058F000487B10B1084602F05DFC0DB1054A00E09E
:10590000002223463946301DBDE8F04101F040B980
:105910000800002069830000001D01F0ABB938B514
:10592000001D049C009401F0BDF938BD0FB408B50A
:105930000399002904D004AA00926A4600F00FF8E7
:1059400001B05DF814FB10B582680446002A05D04A
:10595000D4E90403216898470020A06010BD2DE918
:10596000FC4791460C00804676D014F8011B39B1F3
:1059700025290ED04046FEF7FBF920780028F4D107
:1059800098F80C00002867D04046BDE8FC47FFF7B8
:10599000DABF0020012221782B291BD02D2902D02B
:1059A000302908D102E040F0010001E040F002009F
:1059B000641C002AEFD100252A290ED02178A1F1FC
:1059C00030020A2A11D205EB850201EB4205641C64
:1059D000303DF1E740F00400EAE7D9F800100B1D74
:1059E000C9F800300968641C0D44217800232E2971
:1059F0000BD114F8011FA1F130020A2A05D203EBE2
:105A0000830201EB4203303BF3E76C290DD0682998
:105A10000BD0692921D00BDC252918D0582931D089
:105A200063290ED0642915D117E014F8011FECE7A3
:105A3000702969D0732932D075291BD0782909D1F2
:105A400020E0D9F80000011DC9F800100178404697
:105A5000FEF78EF9641C90E76CE0D9F800100A1D7F
:105A6000C9F800200968CDE900500A224046FFF736
:105A700095FBEFE7D9F800100A1DC9F80020096866
:105A80000A2206E0D9F800100A1DC9F800200968AA
:105A90001022CDE90050404602F09CFEDAE7D9F82A
:105AA000001000270A1DC9F800200E68C00705D1A4
:105AB00012E04046761C7F1CFEF75AF93178002927
:105AC000F7D104E0202140466D1EFEF751F9BD429A
:105AD000C0D9002DF6D1BDE74EB13046FAF738FDFA
