:020000040000FA
:10000000B04F0020DD040000E5040000E103000023
:10001000E9040000EB040000ED0400000000000013
:10002000000000000000000000000000EF040000DD
:10003000F104000000000000F3040000F5040000DB
:10004000B9130000F70400002D1600004914000049
:10005000F7040000F704000019110000F704000085
:10006000F7040000F7040000F7040000C9130000C3
:10007000F7040000F7040000F7040000F704000094
:10008000F7040000D9130000F7040000F704000093
:10009000F7040000F7040000F7040000F704000074
:1000A000F7040000F7040000F7040000F704000064
:1000B000F7040000F704000000000000000000004A
:1000C000F7040000F7040000F7040000F704000044
:1000D000F7040000F7040000F704000039160000E0
:1000E000F7040000F7040000F7040000000000001F
:1000F00000000000F704000000000000F70400000A
:1001000000000000000000000000000000000000EF
:1001100000000000000000000000000000000000DF
:1001200000000000000000000000000000000000CF
:1001300000000000000000000000000000000000BF
:1001400000000000000000000000000000000000AF
:10015000000000000000000000000000000000009F
:10016000000000000000000000000000000000008F
:10017000000000000000000000000000000000007F
:10018000000000000000000000000000000000006F
:10019000000000000000000000000000000000005F
:1001A000000000000000000000000000000000004F
:1001B000000000000000000000000000000000003F
:1001C000000000000000000000000000000000002F
:1001D000000000000000000000000000000000001F
:1001E000000000000000000000000000000000000F
:1001F00000000000000000000000000000000000FF
:10020000DFF810D000F046FC00480047ED5D00002C
:10021000AFF30080B04F002030B4044654E8000F24
:100220000D4644E80053002BF8D1156030BC7047F0
:1002300030B4044654E8000F40EA010544E8005396
:10024000002BF7D1156030BC704730B4044654E839
:10025000000F00EA010544E80053002BF7D11560B8
:1002600030BC704730B4044654E8000F80EA010502
:1002700044E80053002BF7D1156030BC704730B410
:10028000044654E8000F00EB010544E80053002B3E
:10029000F7D1156030BC704730B4044654E8000F05
:1002A000A0EB010544E80053002BF7D1156030BCEA
:1002B000704770B404464FF0000054E8006F0D68BA
:1002C000AE4207BF44E80023012044E800630E600B
:1002D000002B1CBF0020F0E770BC704730B4044610
:1002E00054E8000F88422CBF451A054644E80053E5
:1002F000002BF5D1156030BC7047000030B40446C7
:1003000054E8000F0D4644E80053002BF8D1156067
:1003100030BC704730B4044654E8000F40EA010591
:1003200044E80053002BF7D1156030BC704730B45F
:10033000044654E8000F00EA010544E80053002B8E
:10034000F7D1156030BC704730B4044654E8000F54
:1003500080EA010544E80053002BF7D1156030BC5A
:10036000704730B4044654E8000F00EB010544E840
:100370000053002BF7D1156030BC704730B40446F1
:1003800054E8000FA0EB010544E80053002BF7D11F
:10039000156030BC704770B404464FF0000054E85C
:1003A000006F0D68AE4207BF44E80023012044E817
:1003B00000630E60002B1CBF0020F0E770BC70478C
:1003C00030B4044654E8000F88422CBF451A054655
:1003D00044E80053002BF5D1156030BC7047000095
:1003E000094B1EF0040F1CBFEFF309801847EFF311
:1003F00008800649064A884201D8904202D88D46B4
:100400004FF0000018470000BD110000B04F002061
:10041000B02F002030B450E8012F93B2C489234498
:100420008489A34228BF1B1B0489A34202BFBFF3D8
:100430002F8F002007E0C3EA020340E80134002CBC
:10044000E9D14FF001000A6030BC704750E8012F3D
:10045000C2EA024240E801210029F7D1704730B4D6
:1004600050E8022F1FFAA2F3C488A34202BFBFF3D1
:100470002F8F00200DE0C48923448489A34228BF24
:100480001B1BC2EA034340E80234002CE8D14FF0C2
:1004900001000A6030BC704750E8022FC2EA2242D5
:1004A00040E802210029F7D17047034653E8022FA4
:1004B000D988B2EB324F4FF0000017BF92B241EA39
:1004C000014142EA014104E05A68B2EB324F08BFF1
:1004D000012043E80212002AE8D17047064880470D
:1004E00006480047FEE7FEE7FEE7FEE7FEE7FEE719
:1004F000FEE7FEE7FEE7FEE75914000001020000F8
:100500000048704754AE000040EA01039B0703D047
:1005100009E008C9121F08C0042AFAD203E011F842
:10052000013B00F8013B521EF9D27047D2B201E004
:1005300000F8012B491EFBD270470022F6E710B5E8
:1005400013460A4604461946FFF7F0FF204610BD41
:10055000421C10F8011B0029FBD1801A704703468A
:1005600011F8012B00F8012B002AF9D11846704729
:100570002DE9FE4F81EA030404F0004421F000411C
:1005800000944FF0000B23F0004350EA01045ED0CA
:1005900052EA03045BD0C3F30A54C1F30A552C4456
:1005A000A4F2F3340194A0FB0254C1F3130141F40B
:1005B0008011C3F3130343F4801301FB024400FBD7
:1005C000034E840A970A44EA815447EA8357A4FBFE
:1005D000076802958D0A05FB07854FEA932C04FBFB
:1005E0000C542705029D4FEA065847EA1637B5EB2B
:1005F00008056EEB070C870E920E47EA811742EA58
:100600008312A7FB0201B6EB0B0164EB00042B0D78
:1006100043EA0C335E1844EB1C50DA465146E7FBC4
:100620000201C5F313044FEA0B3343EA14534FEAB4
:100630000432019C43EA0603A4F10C040294009CDA
:10064000CDE900B400F082F803B0BDE8F08F0020DF
:100650000146F9E7C1F30A5210B5C1F3130140F2A4
:10066000FF3341F480119A4201DA002010BD40F2BC
:1006700033439A42A2F2334203DC524200F047F87D
:1006800010BD904010BD00F0004230F000400AD094
:10069000C10D01F56071C0F3160042EA0151C208B4
:1006A0004007114370470020014670472DE9F05F75
:1006B0000546002092469B468846064681464024D1
:1006C0001BE0284641464746224600F020F85346A4
:1006D0005A46C01A914110D311461846224600F0DE
:1006E000EBF92D1A67EB01084F4622460120002145
:1006F00000F0E2F917EB00094E41201EA4F10104BD
:10070000DFDC484631462A464346BDE8F09F202AB2
:1007100004DB203A21FA02F00021704721FA02F3AB
:10072000D040C2F12002914008431946704710B5ED
:10073000141E73F1000408DA401C41F10001921804
:100740005B411A4301D120F0010010BD2DE9F04DAD
:1007500092469B4611B1B1FA81F202E0B0FA80F202
:100760002032904600F0A8F904460F4640EA0A00FD
:1007700041EA0B0153465A46084313D0114653EA47
:10078000010019D0C8F140025046FFF7C0FF0546EE
:100790000E4650465946424600F08EF9084305D0B1
:1007A000012004E020463946BDE8F08D00200543D5
:1007B00046EAE0762C4337430A986305E40AA0EB47
:1007C00008000022FD0A44EA47540A3002D50020FE
:1007D0000146E9E7010510196941DDE908450019FD
:1007E0006941BDE8F04DA2E72DE9FE4F804681EA60
:1007F0000300C00F0C46009021F0004123F000459B
:10080000B8EB0200A94105D24046214690461C465D
:100810000B46024623F00040104347D0270DC7F394
:100820000A00C3F30A510290401A019040286BDA83
:10083000C3F3130040F4801B0098924620B10023BC
:10084000D2EB030A63EB0B0B01985946C0F140024F
:10085000504600F031F906460D4650465946019A79
:1008600000F039F910EB08006141002487EA1152C9
:1008700084EAE7731A4340D0009A62B3019A012ACE
:100880004FEA075215DC001B61EB02014FF00042FA
:1008900002EA0752CDE90042001C41F580113246C0
:1008A0002B46FFF753FF03B0BDE8F08F40462146CB
:1008B000F9E7001B61EB0201001C41F580130018F1
:1008C0005B412018A2F5001747EB030140EAD57001
:1008D000B6196D4111E06D084FEA360645EAC0755C
:1008E0004FEA0752001B61EB0201001C41F5801129
:1008F00049084FEA30000019514132462B4603B0F7
:10090000BDE8F04FFFF713BF00980122400000231D
:10091000D0EB020263EBE073009821464FEAE074EB
:10092000B8EB000061EB0401E9E783F000435BE70B
:1009300081F0004158E72DE9F04D81EA030404F00D
:10094000004B21F0004514464FF0000A23F000410F
:1009500050EA050220D054EA01021DD0C5F30A571F
:100960000246C5F31303C1F31300C1F30A5640F462
:10097000801543F48013A7EB0608101BD64608F237
:10098000FD3873EB050002D308F1010801E092186D
:100990005B41B8F1000F03DA00200146BDE8F08D9D
:1009A00000204FF48011064684460EE0171B73EBBF
:1009B000050705D3121B63EB050306434CEA010C44
:1009C00049084FEA300092185B4150EA0107EDD127
:1009D00052EA030012D082EA040083EA05010843C8
:1009E00005D0101BAB4106D20122002306E00022F5
:1009F0004FF0004302E06FF0010253101AEB0600C3
:100A00004CEB085110EB0A0041EB0B01BDE8F04D37
:100A1000FFF78DBE70B521F0004303430CD0C1F346
:100A20000A550024D5EB040564EB0403D617AD1A70
:100A3000B34102DB0020014670BD201841EB02519A
:100A400070BD0EB5C10F80EAE0700844CA070021EE
:100A500040F233438DE80E000A460B46FFF776FE60
:100A600003B000BD30B5041E71F1000404DB4FF08B
:100A70000044404264EB0101141E73F1000405DBE5
:100A80001C464FF00043524263EB0403994208BFF7
:100A9000904230BD064C074D06E0E06840F001038F
:100AA00094E8070098471034AC42F6D3FFF7ACFB4C
:100AB000A4B60000C4B60000202A04DB203A00FAE5
:100AC00002F1002070479140C2F1200320FA03F3A5
:100AD000194390407047202A06DBCB17203A41FA91
:100AE00002F043EAE07306E041FA02F3D040C2F1BB
:100AF000200291400843194670472DE9F04D00232C
:100B00001A461B1A8A4103DB00200146BDE8F08D1E
:100B1000C1F30A52C1F3130141F480154FF0000BE9
:100B2000D10702D100186D41521E0027044640F241
:100B3000FF11384601EB620A3E468046024600201D
:100B40004FF48011FFF7E3FDC2197141BB1846EB6A
:100B50000100B4EB030C75EB000C04D3E41A65EB55
:100B6000000517460E46241908F101006D41804624
:100B70003428E3DDF91946EB0600091BA84103D22E
:100B80004FF0FF32134601E0002213461BEB070033
:100B900046EB0A51BDE8F04DFFF7C9BD30B58C18E2
:100BA00010F8012B12F00F0301D110F8013B1209CC
:100BB00006D110F8012B03E010F8015B01F8015B8E
:100BC0005B1EF9D101E001F8013B521EFBD1A142AD
:100BD000E6D3002030BD00002DE9FC4781461AA075
:100BE0001A4C006801908DF805104FF000080E4671
:100BF00084F80080022301AA0D211548CDF8008059
:100C000005F0BBFC051E01D001F0CEFF20780028C6
:100C1000FCD0104F387890B98DB984F800803346F5
:100C20004A460D210A4805F0A5FC051E01D001F039
:100C3000BBFF20780028FCD0387800B915B100201F
:100C4000BDE8FC870120FBE7A100000000000020B8
:100C50002CA900000100002030B589B01E2923D83E
:100C6000A0228DF804208DF80510002201AB03E0CE
:100C7000845C9D18521CAC708A42F9DB0D4D00203B
:100C80002870891CCBB2009001AA0D210A4805F0FA
:100C900074FC041E01D001F087FF28780028FCD0E6
:100CA0000648007800B914B1002009B030BD012019
:100CB000FBE70000000000202CA90000010000203C
:100CC00070B505460C46104600F096F8002806D090
:100CD00021462846FFF780FF002800D0012070BD84
:100CE00010B5044694220221FFF7EAFF002807D03E
:100CF00096220221A01CFFF7E3FF002800D001206C
:100D000010BD8F220121FFF7DBBF10B542EA810140
:100D100041EA0010029CC0B2210141EAC301CCB2F9
:100D2000802100F0C5F9002805D02046BDE810401C
:100D3000812100F0BDB910BD08B5B0F5007F01D329
:100D4000002008BDC0F300220A438DF800208DF872
:100D500001008A220221684600F0CEF90028F0D076
:100D6000012008BD30B504461E480D462DED028B0E
:100D700081B0844204D9002001B0BDEC028B30BDAB
:100D80009FED191B9FED1A0B00F076FDB0EE408A27
:100D9000A80800EE100AF0EE608AF8EE400A00EEB5
:100DA000104AB8EE401A81EE200A10EE100AFFF742
:100DB0006AFC53EC182BFFF7DBFBFFF74BFCC0F38F
:100DC00003418DF80010010A8DF801108DF8020022
:100DD00085220321684600F08FF90028CCD001203D
:100DE000CAE70000A08601000000000000003B40B0
:100DF00000000000000000407CB50FA10F4D096805
:100E000001918DF80500002028700090022301AAAE
:100E10000D210B4805F0B1FB041E01D001F0C4FE0A
:100E200028780028FCD00748007800B90CB10020D1
:100E30007CBD01207CBD0000B0000000000000204F
:100E40002CA900000100002030B50D4604461F49C2
:100E5000A0F57A702DED028B81B0884204D300207A
:100E600001B0BDEC028B30BD9FED191B9FED1A0B3D
:100E700000F002FDB0EE408AA80800EE100AF0EE85
:100E8000608AF8EE400A00EE104AB8EE401A81EE91
:100E9000200A10EE100AFFF7F6FB53EC182BFFF7B1
:100EA00067FBFFF7D7FBC0F303418DF80010010A81
:100EB0008DF801108DF8020082220321684600F0AF
:100EC0001BF90028CCD00120CAE70000B98201003C
:100ED0000000000000003B40000000000000004057
:100EE00008B5B0F5007F01D3002008BDC0F3002194
:100EF0008DF800108DF8010088220221684600F06C
:100F0000FBF80028F1D0012008BD00002DE9FE43C8
:100F10000446012000901F4690468946A37B227D0F
:100F2000617B0B20FFF7F1FE00287DD0216920684E
:100F3000FFF78AFF002877D021696068FFF712FF6A
:100F4000002871D02089FFF7CBFF00287FD0217BBC
:100F50006089FFF7F1FE002879D000250095A37B7A
:100F6000227D617B0120FFF7D0FE00286FD0642036
:100F700005F016FA0095A37B227D617B0220FFF726
:100F8000C4FE002863D038483849401AC1080320FD
:100F900000EB0140064636A106F0AAF805F090FFE6
:100FA0000028FBD1E582206839E00A2005F0F8F935
:100FB00001A8FFF7A6FE9DF80410890701D40028B8
:100FC000F3D102A8FFF78CFE78B3BDF80A000090B9
:100FD000BDF8083030462BA1A26906F09CF800BF8E
:100FE00005F06EFF0028FBD1E28AA16949F82210C2
:100FF000E28ABDF8081028F81210E18ABDF80A004C
:1010000027F811000095A37B227D617B0320FFF769
:101010007CFEE08A401CE0826168A0690844A0610F
:1010200001A8FFF76EFE01E011E012E09DF8041048
:10103000490701D40028B8D10095A37B227D617BAC
:101040000A20FFF762FEE5822068A0610120BDE86A
:10105000FE83304612A106F04BF800BF05F030FFCA
:101060000028FBD1C0E7000054B70000D4B6000050
:101070005377656570207374617274207375636350
:1010800065737300467265713A202564205265616C
:101090006C3A20256420496D61673A202564000080
:1010A000526561642044617461204661696C00008E
:1010B0007CB50E4D8DF804108DF8050000202870C9
:1010C0000090022301AA0D21094805F056FA041EDA
:1010D00001D001F069FD28780028FCD0054800788F
:1010E00000B90CB100207CBD01207CBD00000020B7
:1010F0002CA900000100002070B505460C461046E2
:10110000FFF77AFE002806D021462846FFF7A4FD07
:10111000002800D0012070BD2DE9FC410025DFF83A
:10112000948000954FF4807601242F460195304637
:1011300005F0F8FD38B1D8F80403204203D030465A
:1011400005F0E6FD2543361D64007F1CB6B2082F6E
:10115000EDD34FF4BE74204605F0E4FD48B12046BF
:1011600005F0D6FD45F000456A460221002005F055
:1011700051FD15F0FF0F16D0012600242E420ED08F
:1011800008EB8401D1F81005D1F81015C0F3052043
:10119000094AC1F3014152F8242002B19047760078
:1011A000641C082CEAD3002D02DA684607F032FCF2
:1011B000BDE8FC8100600040D80200202DE9FC471A
:1011C000814606F03FF800BF05F07AFE0028FBD10B
:1011D0002E485FEA090507682D482E494FF00106A1
:1011E000A0EB01004FEAD00006EB004417D02046E8
:1011F00029A1AA6905F080FFD5E90201CDE9000126
:10120000D5E9002320462AA105F08EFFE869009069
:10121000D5E90423204634A105F07DFF03E02046F4
:101220003BA105F065FF1948001D0068800703D544
:101230002046444905F05CFFDFF80C81002500BF23
:1012400006FA05F0384206D058F825201AB1204693
:101250003EA105F051FF6D1C1A2DF1D3380606D5BD
:101260000A480C30026820463BA105F045FF3804CF
:1012700006D506481030026820463FA105F03CFF25
:10128000484600F087F8BDE8FC87000028ED00E044
:101290002CB70000D4B600004841524420464155C6
:1012A0004C542061742030782530385800000000FC
:1012B000202052303A2020307825303858202052D3
:1012C000313A2020307825303858202052323A20C8
:1012D00020307825303858202052333A202030787A
:1012E000253038580000000020205231323A20309A
:1012F000782530385820204C523A2020307825303C
:10130000385820205053523A203078253038580031
:10131000537461636B2076696F6C6174696F6E3AA8
:1013200020737461636B20706F696E746572206FD7
:1013300075747369646520737461636B2061726591
:10134000612E000038AF0000E80000204361757393
:10135000653A2025732E00004D656D4D616E616705
:1013600065204661756C7420416464726573733ADC
:101370002030782530385800427573204661756CEE
:101380007420416464726573733A20307825303874
:1013900058000000BFF34F8F05480168054A01F46B
:1013A000E06111430160BFF34F8F00BFFDE7000014
:1013B0000CED00E00400FA0510B506F01FFCBDE8D6
:1013C000104006F03FBA000003220021014804F05B
:1013D00051BC000000B0004002490248091F0968E2
:1013E00000680847E000002000F062B970B50E46C2
:1013F000144900EB400001EBC0051446E86A1835BB
:1014000020B101280FD0022805D113E0284600F0B2
:1014100083F9A04201D2002411E022463146284639
:1014200000F0D4F90BE0284600F076F9A042F4D29F
:101430000446F2E73146284600F09BF90446204670
:1014400070BD0000A02C00200149024808F0DEBA5F
:10145000900200200030004070B54FF0805201240F
:10146000D2E94C100023082906D1CD06C5F80C316D
:10147000C5F810315E4D2B60082955D15D4D2D68A2
:101480005D4E35605B4D2D1D2D68361D3560594D07
:1014900008352D68361D3560564D0C352D68361DC6
:1014A0003560544D10352D68361D3560514D14355D
:1014B0002D68361D35604F4D18352D684E4E20363F
:1014C00035604C4D1C352D68361D3560494D203535
:1014D0002D68361D3560474D24352D68361D356025
:1014E000444D28352D68361D3560424D2C352D680C
:1014F000361D35603F4D30352D683F4E40363560E6
:101500003C4D34352D68361D35603A4D38352D68E3
:10151000361D3560374D3C352D68361D3560354DEF
:1015200040352D68361D3560082904D1050002D1EB
:10153000334E324D3560082904D1050002D1314EB9
:10154000FB253560082908D1050006D192F85862BC
:101550002D4A156866F303051560082904D10200B9
:1015600002D12A4D8A012A60082906D1284801683B
:10157000C90702D06FF0010101602648016841F4FB
:1015800070010160BFF34F8FBFF36F8F4FF01021D9
:10159000D1F80002002803DBD1F80402002822DA87
:1015A0001D4A14601D480468002CFCD01224C1F8A8
:1015B00000420568002DFCD0C1F8044201680029F2
:1015C000FCD0136001680029FCD0BFF34F8F114895
:1015D0007C380168124A01F4E06111430160BFF3F5
:1015E0004F8F00BFFDE710490E48086070BD000036
:1015F000380500400404001020C500404881030065
:101600008C56004018F50040E40E00404096024021
:101610000004004088ED00E004E5014000E40140E2
:101620000400FA050090D003480200200148006839
:10163000004700001C0000202DE9F0411A48D0F8B6
:101640000453002601240FE095FAA5F0B0FA80F7C4
:10165000B80000F5807006F065F810B104FA07F0E4
:10166000064304FA07F08543002DEDD1C6F3C057B9
:1016700026F40005DFF834800AE000BF95FAA5F0F3
:10168000B0FA80F658F82600804704FA06F0854341
:10169000002DF3D108F066FD002F03D0BDE8F04126
:1016A00003F056B9BDE8F08100700240B0A9000017
:1016B00010B5124C02202061606111A0A06104F1FC
:1016C0007800E0614FF4007020620020A062606248
:1016D0000BA1A164E06204F51E71E1641021A06514
:1016E000C4E91410E06509A1E01DFEF738FF08A168
:1016F0002046FEF734FF2020A07110BDA02C002052
:101700005465726D696E616C0000000052545400A3
:1017100053454747455200000269C1688A4203D8D1
:101720008068401A104400E0501A401E70470000C4
:10173000C11700EBD161074B4A1153F8222021F069
:101740001F01411A01208840024201D00120704748
:101750000020704700E100E0002809DB00F01F02D4
:10176000012191404009800000F1E020C0F8801282
:1017700070472DE9F047C4681746894606464FF082
:1017800000083069A04201D9051B02E0B168201AA7
:101790000D1AB0686D1E001BA84200D80546BD4258
:1017A00000D33D4670682A4620444946FEF7ACFE09
:1017B000B0687F1B2C44A844A944A04200D1002457
:1017C000F460002FDDD14046BDE8F0872DE9F041FF
:1017D00004468846D4E90207C51BE16860681646DE
:1017E0000844B54206D94146FEF78EFEB819E060BE
:1017F000BDE8F0812A464146FEF786FE761B08EBDF
:10180000050132466068FEF77FFEE660F0E7000003
:101810000FB47CB50C0009AD01D0611E00E00021C1
:10182000CDE90001064B6A462946089800F032FFD0
:10183000002C02D0009A002111707CBC5DF814FBD2
:10184000EB2A000003B401984100009850EAC1203F
:1018500018BF04204A0D18BF40F0010040F2FF728B
:10186000B2EB515F08BF40F00200012808BF05201D
:1018700002B07047000000002DE9F04D2DED040B83
:101880002DED0E8B96B0DDE92550279CDDF890A05C
:1018900025F0004624F00048BAF1000F14BF0121E2
:1018A000002101EB4502FC4953184A1093422AD308
:1018B000002814BF0123002303EB44030B44F74922
:1018C0008B4220D358EA00019FEDF59B76D0DFF8DC
:1018D000D8B35D4503D1BAF1000F05D188E0BAF164
:1018E000000F08BF002100D0012101EB450111F5D7
:1018F000001F08D8002814BF0121002101EB44017A
:1019000011F5001F0BD99DED261B9DED240B16B084
:10191000BDEC0E8B04B0BDE8F04D00F069BE0027B1
:10192000002DBCBFE149884521DAE1498845A8BFBF
:1019300002271CDAC3451ADCDE4901EB28511429C1
:1019400008DDC1F1340220FA02F101FA02F282420A
:101950000DD108E058B9C1F1140228FA02F101FAD8
:1019600002F2424503D101F00101C1F1020756EA3A
:101970000A0124D1002C22DA002D18BF022F01D039
:10198000012F0AD0022000F07FFE16B0BDEC0E8BB6
:1019900004B0BDE8F04D00F013BE022000F074FE6C
:1019A00000F00EFE51EC100B81F0004141EC100BE9
:1019B00016B0BDEC0E8B04B0BDE8F08D18E09FEDC5
:1019C000BEAB9FEDBF8B002871D1B848804522D1B6
:1019D00005F1804010F5801008BFBAF1000F07D064
:1019E000B3450ADC002CA8BF9DED260BE0DA0DE024
:1019F000B0EE490AF0EE690ADAE7002C06DA9DED4E
:101A0000260B51EC100B81F000416FE0AE4878449A
:101A100090ED000BCCE7D8454DD1002C48DA2EB123
:101A200086423AD1BAF1000F42D126E0BAF1000F56
:101A300013D0022000F028FE00F0F6FD8DED020B21
:101A40009DED240B8DED000B10EE900A039961F3D0
:101A50001E0003909DED020BAAE78DED02AB9DEDFC
:101A6000240B1AEE901A10EE900A8DED000B61F324
:101A70001E0003909DED020B9AE78DED028B9DED0C
:101A8000240B18EE901A10EE900A8DED000B61F306
:101A90001E0003909DED020B8AE709DA9DED240BF1
:101AA00051EC190B53EC102BFEF745FF1EE020E024
:101AB0009DED240B7CE786421BDAB4F1804F0DD0FC
:101AC000A4F10050B0F1FF5013D1002D11DB9DEDBA
:101AD000240B51EC100B07F0E9FD07E09DED240B02
:101AE00053EC102B51EC100B00F0C2BC41EC100B6E
:101AF0005EE79DED240B51EC100B03F04FF8BAF1AB
:101B0000000FCDE90E0142D19FED710B46B3A6F156
:101B1000E040B0F17F600CD05E4538D1002D00DA96
:101B2000A7B3022F0CBF01204FF0FF30FEF789FF53
:101B3000DCE7002D01DD002C0DDA002D01DD002C8D
:101B40001FDB002D16DA002C14DB012F08BF9FEDE0
:101B5000620B3FF42DAFB0EE4A0AF0EE6A0A27E7B7
:101B6000022F18BF002D0CD0012F0AD1002DFFF637
:101B70001FAF06E0002DB8BF002C08DA012F3FF49C
:101B800017AFB0EE480AF0EE680A11E71BE001203B
:101B900000EBE57050EA070115D0791EB0EE498AD6
:101BA000F0EE698A084308BF9FED4D8B4E48002533
:101BB000804570DD4D494E48884514DDB0420DDB4F
:101BC000002C19DB2FE0012000F05EFD16B0BDEC0B
:101BD0000E8B04B0BDE8F04D00F016BDB34502DC3D
:101BE000002C09DC1FE0864202DA002C1BDA03E03D
:101BF0005E452BDD002C16DD022000F045FD00F0D7
:101C000013FD8DED020B53EC1A2B51EC180BFEF764
:101C1000AFFCCDE900010399019861F31E00039028
:101C20009DED020BC4E6022000F02EFD00F00CFD3D
:101C300010EE901A18EE900A8DED020B8DED008BD0
:101C400061F31E0003909DED020BB1E69DED0E0BBE
:101C500053EC192B51EC100BFEF767FE9FED260B92
:101C6000CDE9080153EC102B9DED080B51EC100B46
:101C7000FEF77EFC9FED221B53EC112BFEF758FE66
:101C80009DED081B53EC112BFEF772FC9FED1E1B04
:101C900053EC112B3CE08CE0FFFF1F00FFFF0F0017
:101CA000000000000000F03F0000F03F0000F07F67
:101CB0000000404301FCFFFF000000000000F07F37
:101CC000000000000000000046940000000000003A
:101CD0000000000000000080000000000000F0FF95
:101CE000000000000000F0BF0000E0410000F043F1
:101CF000FFFFEF3F00000000000000000000D03FA9
:101D0000555555555555D53F000000000000E03FA2
:101D1000FEF70EFE9DED080B41EC1A0B53EC102B59
:101D200051EC100BFEF724FC53EC1A2BFEF720FCB1
:101D300041EC1A0B9FEDFE0B53EC102B9DED080BA5
:101D400051EC100BFEF714FC41EC1B0B9FEDFA0B52
:101D500051EC1A0B53EC102BFEF70AFC41EC1A0B5A
:101D60009FEDF70B53EC102B9DED080B51EC100B76
:101D7000FEF7FEFB53EC1A2BFEF7D7FD41EC1A0BD6
:101D800051EC1B0B53EC1A2BFEF72EFD0690CDE900
:101D900006519DED060B53EC1B2B51EC100BFEF77F
:101DA000C4FD53EC1A2BFEF7C3FD41EC100B00F001
:101DB000A1B90020B6F5801F0EDA9FEDE30B53ECBE
:101DC000102B9DED0E0B51EC100BFEF7D1FBCDE966
:101DD0000E016FF034000E4600EB2650A0F2FF37E4
:101DE000C6F31300DA4940F07F6646F04056884259
:101DF000D8BF002408DDD7498142C8BF012403DCD5
:101E00000024A6F580167F1CD348784400EBC4005C
:101E10000F9690ED00CB9DED0E0B53EC1C2B51EC6F
:101E2000100BFEF782FD9DED0E0B41EC1B0B53ECEE
:101E30001C2B51EC100BFEF7D7FC41EC100B51ECB6
:101E4000190B53EC102BFEF776FD41EC1D0B51ECFA
:101E50001B0B53EC1D2BFEF78BFB41EC1A0BBF4801
:101E60008DED10AB7844109590ED000B4FF00050C5
:101E700040EA660000EB84408DED080B00F5002081
:101E800009909DED080B53EC1C2B51EC100BFEF749
:101E90004CFD9DED0E1B53EC112BFEF749FD41EC63
:101EA000100B53EC102B9DED100B51EC100BFEF7AB
:101EB0005FFB9DED080B41EC1C0B53EC102B9DEDD3
:101EC000100B51EC100BFEF753FB53EC1B2BFEF7E2
:101ED0002FFD53EC1C2BFEF728FD53EC1D2BFEF7BA
:101EE00047FB41EC1C0B53EC1A2B51EC1A0BFEF781
:101EF0003FFB41EC1B0B9A480621B0EE4B0AF0EE7B
:101F00006B0A784400F0E0FAB0EE401AF0EE601A86
:101F1000B0EE41DAF0EE61DA53EC1B2B51EC1B0B07
:101F2000FEF726FB53EC1D2BFEF722FB9DED100B5D
:101F300041EC1B0B53EC1A2B51EC100BFEF754FC2D
:101F400053EC1C2BFEF714FB53EC1B2BFEF74CFC45
:101F50009DED100B41EC1B0B53EC102B51EC100BB7
:101F6000FEF706FB41EC1D0B9FED7FEB53EC1E2BA8
:101F7000FEF73AFC53EC1B2BFEF736FC0890CDE93C
:101F800008519DED080B53EC1E2B51EC100BFEF786
:101F9000CCFC53EC1D2BFEF7C8FC53EC1B2BFEF7BF
:101FA000C7FC9DED080B41EC1D0B53EC102B9DED78
:101FB000100B51EC100BFEF7DBFA41EC1B0B53EC52
:101FC0001A2B51EC1D0BFEF7D3FA9DED080B41ECDB
:101FD0001A0B53EC102B51EC1C0BFEF7C9FA53EC07
:101FE0001A2BFEF701FC41EC1A0B51EC1B0B53ECC6
:101FF0001A2BFEF7F9FB0C90CDE90C519DED0C0B63
:1020000053EC1B2B51EC100BFEF78FFC53EC1A2BEF
:10201000FEF78EFC41EC1B0B9FED550B53EC102B88
:102020009DED0C0B51EC100BFEF7A2FA41EC1A0BD4
:102030009FED510B51EC1B0B53EC102BFEF798FA54
:1020400041EC1B0B9FED4E0B53EC102B9DED0C0B3D
:1020500051EC100BFEF78CFA53EC1B2BFEF7C4FB74
:1020600041EC100B4848784400EBC40090ED001B95
:1020700051EC100B53EC112BFEF7B6FB41EC1B0B94
:102080003846FEF7DEFCCDE9080153EC1B2B51EC82
:102090001A0BFEF7A9FB41EC100B3C48784400EB0F
:1020A000C40090ED00CB51EC100B53EC1C2BFEF751
:1020B0009BFB9DED081B53EC112BFEF795FB069047
:1020C000CDE906519DED080B53EC102B9DED060B51
:1020D00051EC100BFEF729FC53EC1C2BFEF725FCF2
:1020E00053EC1A2BFEF721FC53EC1B2BFEF720FCC4
:1020F00041EC100B9DED261B53EC102B8DED001BBE
:1021000000959DED260B51EC100BFEF731FA9DED7D
:10211000000B41EC1A0B53EC102B9DED260B51ECF0
:10212000100BFEF702FC9DED061B53EC112B2FE06C
:10213000000000604715F73FFE822B654715F73F0B
:1021400044DF5DF80BAE543E000000000000404349
:102150008E9803007AB60B003A8F0000F08F0000D3
:10216000728E000000000000000000000000084027
:10217000000000E009C7EE3FFD033ADC09C7EE3F6F
:10218000F5015B14E02F3EBEFE8C0000B88C000011
:10219000FEF7EEF953EC1A2BFEF726FB9DED060B2E
:1021A00041EC1A0B53EC102B9DED000B51EC100B76
:1021B000FEF7DEF9CDE90C019DED0C0B51EC1A0B8D
:1021C00053EC102BFEF710FBCDE902010C46AA4997
:1021D0008C422FDB611A084318D19DED0C0B53EC98
:1021E000102B9DED020B51EC100BFEF79EFB41EC0A
:1021F0001B0B9FEDA30B51EC1A0B53EC102BFEF7AE
:10220000F3FA53EC1B2BFEF72DFC2DD2022000F02D
:102210003BFA00F009FA10EE901A18EE900A8DEDD4
:10222000020B8DED008B61F31E0003909DED020B00
:10223000FFF7BEBB944A24F00041914214D3934966
:10224000214408437FF4EFAC9DED0C0B53EC102BB5
:102250009DED020B51EC100BFEF767FB53EC1A2BB4
:10226000FEF700FC7FF6DFAC24F000408849894A85
:10227000002601EB205182422BDA481C4FF48011DA
:1022800021FA00F02044844AC0F30A517A44A1F2B2
:10229000FF3192ED000B814A8DED080BCA4020EA18
:1022A0000202C0F3130040F48010C1F1140120FABF
:1022B00001F60992002CB8BF76429DED080B53EC55
:1022C000102B9DED0C0B51EC100BFEF72EFBCDE906
:1022D0000C019DED0C0B51EC1A0B53EC102BFEF77F
:1022E00083FA9FED6F0B0890CDE9085153EC102B4A
:1022F0009DED080B51EC100BFEF73AF941EC1B0B6E
:102300009FED690B53EC102B9DED080B51EC100B5E
:10231000FEF72EF99DED0C0B41EC1C0B53EC102B32
:102320009DED080B51EC100BFEF7FFFA53EC1A2B46
:10233000FEF7FEFA9FED5E1B53EC112BFEF718F92A
:1023400053EC1C2BFEF750FA41EC1A0B51EC1B0B13
:1023500053EC1A2BFEF748FACDE902019DED020B72
:1023600053EC1B2B51EC100BFEF7DFFA53EC1A2B3E
:10237000FEF7DEFA9DED020B41EC1A0B53EC102B2D
:1023800051EC100BFEF7F4F8CDE908014A489DED39
:10239000080B0521784400F097F89DED081B51ECDF
:1023A000100B53EC112BFEF7E3F89DED021B53ECE1
:1023B000112BFEF7BDFACDE906019DED020B53ECA2
:1023C0001A2B51EC100BFEF7D3F853EC1A2BFEF737
:1023D0000BFA9FED3B0B41EC1A0B53EC102B9DEDD0
:1023E000060B51EC100BFEF7A0FA9DED060B41EC2D
:1023F0001B0B53EC102B9DED020B51EC100BFEF759
:10240000B7F853EC1B2BFEF796FA53EC1A2BFEF79A
:102410008CFA9DED021B53EC112BFEF786FA53EC60
:10242000192BFEF785FACDE9020101EB06500115E3
:102430000029C8BF039015DC9DED020B324651EC1C
:10244000100BFEF7E7FAFFF7FDF9042808BF00F0CC
:10245000FBF832469DED020B51EC100BFEF7DAFA59
:10246000CDE902019DED020B51EC180B53EC102B42
:10247000FEF77EF8FFF73ABB000090400000000036
:10248000FE822B654715973C00CC904000346F3F8F
:1024900001FCFFFF0000E03FC88B0000FFFF0F00C2
:1024A00000000000432EE63F396CA80C615C20BEA2
:1024B000EF39FAFE422EE63F108A000000000000CD
:1024C000000000000000004070B504462DED028BB6
:1024D0004D1E00EBC500B0EE408AF0EE608A90ED34
:1024E000000B35F0060017D053EC182B51EC100BF5
:1024F000FEF73EF841EC100B6D1E04EBC50090EDAD
:10250000001B51EC100B53EC112BFEF76DF941EC55
:10251000100B35F00600E7D1022D36D0042D1CD06B
:10252000062D1CBFBDEC028B70BD53EC182B51EC7B
:10253000100BFEF71DF894ED0A1B53EC112BFEF760
:1025400053F953EC182BFEF713F894ED081B53ECDA
:10255000112BFEF749F941EC100B53EC182B51EC01
:10256000100BFEF705F894ED061B53EC112BFEF74C
:102570003BF953EC182BFDF7FBFF94ED040B53ECE8
:10258000102BFEF731F941EC100B53EC182B51ECEA
:10259000100BFDF7EDFF94ED021B53EC112BFEF732
:1025A00023F953EC182BFDF7E3FF94ED001B53ECDC
:1025B000112BFEF719F9BDEC028B41EC100B70BD2D
:1025C0009FED070B10B553EC102B9FED070B51EC53
:1025D000100BFEF7B0F941EC100B10BD000000002D
:1025E0000000000000000000000000000000F03FBC
:1025F00010B553EC112B51EC100BFEF7F5F841EC34
:10260000100B10BD000000009FED050B10B553EC42
:10261000102B51EC100BFEF78EF941EC100B10BD96
:1026200000000000000000009FED050B10B553EC0A
:10263000102B51EC100BFDF79BFF41EC100B10BD64
:1026400000000000000000709FED050B10B553EC7A
:10265000102B51EC100BFDF78BFF41EC100B10BD54
:10266000000000000000001002E008C8121F08C1AE
:10267000002AFAD170477047002001E001C1121F03
:10268000002AFBD170470000014908607047000034
:102690004C0200202DE9FF4F8DB00F460546002665
:1026A00006E025280BD0DDE90F1290476D1C761C43
:1026B00028780028F5D111B03046BDE8F08F00240D
:1026C000A246A1460122E94900E0044315F8013F72
:1026D000203B02FA03F00842F7D128782A2810D0CC
:1026E0006FF02F022878A0F13001092914D80AEBE5
:1026F0008A0102EB410144F0020400EB010A6D1C67
:10270000F0E701CF5FEA000A03D544F40054CAF1B0
:10271000000A44F002046D1C28782E2817D115F801
:10272000010F44F004042A280ED06FF02F022878FD
:10273000A0F1300109290AD809EB890102EB410116
:1027400000EB01096D1CF2E757F8049B6D1C28781B
:102750006C280FD006DC4C2817D068280DD06A28CA
:1027600014D104E0742810D07A280FD10DE044F47D
:1027700000140AE044F4801401E044F44014697841
:10278000814202D104F580146D1C6D1C28786E28DE
:102790001ED00CDC632830D004DC00288BD05828F5
:1027A00011D19FE0642867D069280CD164E07328B8
:1027B0002DD004DC6F2872D0702804D194E07528E5
:1027C0006ED078286DD0DDE90F129047761C4BE172
:1027D000C4F30250022806D0032809D0042801CFF0
:1027E00009D0066040E101CFF117C0E900613BE18B
:1027F00001CF068038E1067036E117F8040B8DF83A
:10280000000000208DF80100EB46012003E057F89E
:1028100004BB4FF0FF3061074FF0000102D40DE020
:1028200008F10101884649450FDA8045F8DB1BF8BD
:1028300008100029F4D108E008F10101884681421E
:10284000FADB1BF808100029F6D1DDE90F23AAEB0B
:1028500008008146214600F031F9304400EB0806BB
:1028600004E0DDE90F121BF8010B9047B8F10108F5
:10287000F7D221464846F2E00A21C4F302524FF053
:10288000000B0891022A04D001CFC117032A09D0F6
:102890000AE0FF1D27F00707F7E8020108E02CE037
:1028A0001EE01FE000B2C117042A01D140B2C117D7
:1028B000021E71F1000206DA0023D0EB030063EB85
:1028C00001012D2202E0220504D52B228DF82420BF
:1028D000012203E0E20701D02022F7E7904653E00F
:1028E0000A210BE0102109E010214FF0000B44F009
:1028F00004044FF00809089103E008214FF0000B91
:102900000891C4F30252022A04D001CF0021032A05
:1029100006D006E0FF1D27F00707F7E8020103E0F5
:1029200080B2042A00D1C0B24FF0000822072BD594
:102930002A78702A07D0DDF820C08CF0100C5CEAF1
:102940000B0C05D00EE040228DF82420012208E077
:1029500050EA010306D030238DF824308DF825206D
:1029600002229046089B83F0080353EA0B030BD125
:1029700050EA010201D1620706D530228DF82420E9
:102980004FF00108A9F101092A78582A04D038A289
:102990000B9208AA0A920BE03AA2F9E75B46089A62
:1029A000FDF784FE0B9B9B5C0A9A521E0A921370E1
:1029B00050EA0102F2D10A98ADEB000000F1200BC1
:1029C000600702D524F4803401E04FF00109D945B5
:1029D00002DDA9EB0B0000E0002000EB0B014144FD
:1029E0000890AAEB010AE00306D4DDE90F23214693
:1029F000504600F063F806444FF0000908E009A9CA
:102A000011F80900DDE90F12904709F10109761C60
:102A1000C145F4DBE0030CD5DDE90F232146504628
:102A200000F04CF8064404E0DDE90F123020904736
:102A3000761C0899481E08900029F5DC08E00A98E1
:102A40000A990078491C0A91DDE90F129047761C1B
:102A5000BBF10001ABF1010BF1DC21465046DDE991
:102A60000F2300F019F806446D1C21E60928010027
:102A700030313233343536373839616263646566F4
:102A800000000000303132333435363738394142B6
:102A900043444546000000002DE9F041044600256E
:102AA0001E461746880404D405E039462020B04766
:102AB0006D1C641EF9D52846BDE8F0812DE9F04172
:102AC000044600251E469046C80301D5302700E085
:102AD0002027880404D505E041463846B0476D1CE0
:102AE000641EF9D52846BDE8F0814A68002A06D060
:102AF0000A68531C0B6010704868401E486070479D
:102B0000800701D00020704701207047C3688B42C6
:102B100006D811440069491E814201D8012070473E
:102B20000020704710B572B604F08CFB04F0C8F9B1
:102B30000028FBD111481249401AC408012000EBBB
:102B4000044010A104F0D4FA11480068C00700D076
:102B500000BE022000EB04400EA104F0C9FABFF34E
:102B60004F8F0B48E43801680E4A01F4E0611143CD
:102B70000160BFF34F8F00BFFDE7000054B70000B6
:102B8000D4B60000466174616C206572726F720089
:102B9000F0ED00E053797374656D207265736574B0
:102BA000000000000400FA050EB500210091CDE9F7
:102BB00001106A4644F20100FFF7B4FF0EBD0000A9
:102BC000014801F0BCBC00006800002038B5114885
:102BD00008235822416800910F49006803F000FB68
:102BE000002815D10D4A69460D4801F0ADFC0400DE
:102BF0000ED101210A4801F013FD0123094A1946AB
:102C0000074801F074FC0649012008390870204685
:102C100038BD00005CAA00008C0500206D8F00000C
:102C200068000020FFFF7F0070B505460548046975
:102C300005E02946204601F091FB20680468002C3D
:102C4000F7D170BD8400002070B5094804690CE01C
:102C5000267A002505E02946204600F0C5FC6D1CBB
:102C6000EDB2B542F7D320680468002CF0D170BDF6
:102C70008400002070B50A4804690DE0267A00251A
:102C800006E000222946204600F0ECFC6D1CEDB267
:102C9000B542F6D320680468002CEFD170BD000067
:102CA0008400002070B50849054606200C6907E03D
:102CB0002946204601F052FB062803D121680C6802
:102CC000002CF5D170BD0000840000207CB50468A4
:102CD0000B46154694F820100C34C90705D0A1699D
:102CE00029B1206AA0B311207CBD08207CBDE16E13
:102CF000A9420CD31846A16EFDF706FCE06E401BFE
:102D0000E066A06E65672844A06600207CBDC4E92B
:102D1000063201F082FB05460F480069CDE9000448
:102D2000E26E6AB1A16EA069FDF7EEFBE16EE069AB
:102D3000401AE061A0690844A0610020C4E91B01B9
:102D40006946284600F06EFA0028DFD192207CBD4B
:102D5000FFE7C4E90832F9E71CAB00003EB50D46B9
:102D60000168144691F8201011F0010F0BD001F00A
:102D70004BFBA10609D000210095CDE90141694630
:102D800000F076FA3EBD08203EBD0149896AF3E7AE
:102D90001CAB0000F8B5044600250FE0002705E055
:102DA000007800F053FA08B11120F8BD3946781CBC
:102DB000C7B2304600F09CF80028F1D12946681CC3
:102DC000C5B2204600F0A6F80600E7D100250DE0C8
:102DD000002703E00078214600F03DFA3946781CD0
:102DE000C7B2304600F084F80028F3D12946681CA9
:102DF000C5B2204600F08EF80600E9D1074800E091
:102E0000086801680029FBD10460054869468069AB
:102E100000906068026820469047F8BD940000204A
:102E200070AA00002DE9F04F87B04FF000081D4652
:102E3000934689460446DDF840A04646CDF80C800E
:102E400000E0761C6068012300224768214603A841
:102E5000B8470028F5D140468DF800800027B846D5
:102E600001903BE0606801236A46D0F804C0214627
:102E700001A8E0476068012305AAD0F804C02146F4
:102E800001A8E0479DF8141049451AD1D84514D13E
:102E90009DF80000CAF8000005F8010B6A1C85F8CF
:102EA000009060689DF800302146456801A89B1E8F
:102EB000A847002007B0BDE8F08F08F1010000F03E
:102EC000FF0860689DF800300022D0F804C0214659
:102ED00001A89B1EE0479DF800000744B742C1D3FC
:102EE0000520E7E7014800697047000084000020E2
:102EF00042788A4201D80020704782781044084402
:102F0000704742788A4201D8002070478278104486
:102F100008447047027A8A4201D80020704701EBCA
:102F20004101093008447047027A8A4201D80020E2
:102F3000704701EB4101093008447047024840786E
:102F4000002800D0012070478400002010B5002028
:102F500000F054F9BDE81040802000F04FB910B5E2
:102F6000002000F04DF9BDE81040802000F048B985
:102F700070B50D460146287806240B2813D007DCCF
:102F800007284CD2DFE800F04B0D0F114B2739001A
:102F90000C2825D00D2825D00E282CD085283ED1F0
:102FA00010E0032014E0002439E0244803F05AF92B
:102FB0000028F8D0224801210160BFF36F8FBFF3D2
:102FC0004F8FF0E71D48001F0078032827D1042009
:102FD00007F02CF823E0084600F050F804461EE005
:102FE000002005E01748006810F0010F03D0022010
:102FF00007F01CF8D7E70120FAE7EB78032B0ED097
:103000000E48001D02683AB100210160416818466F
:103010009047040005D000E00E2405F0F3FA2046A6
:1030200070BD06F0FBFF28B1A8780028F7D105F0A5
:10303000BEFAF4E705F0B8FAF1E70000AC000020B2
:103040005C70024038040040024A0146D2E90002A6
:10305000104700004407002070B50C46054605F0F7
:103060009DFAA84201D0102070BD0348D4E9001297
:10307000C0E90212002070BDA80000207FB50546FF
:1030800005208DF8000006240DF1010005F092FAEC
:1030900006F0C4FF2949002008609DF8010010F0E7
:1030A0001F0006D001280FD0022826D0032833D1D4
:1030B00006E06946284606F039F9044606282AD172
:1030C0006846FFF7EFFD25E09DF8050003A900F035
:1030D000A7FA050008D06A469DF80C1000F080FAA7
:1030E0000446062802D016E0102415E06A469DF832
:1030F0000C10284606F02EFA0CE09DF8050001079A
:1031000005D0694600F058F80446062803D1684601
:1031100006F08AF9044624B105F074FA04B020469A
:1031200070BD06F07BFF30B105F038FA0028F5D10C
:1031300005F03DFAF2E705F037FAEFE7B0000020BE
:10314000FEB5C08814460E46A04201D2054600E0F6
:103150001546844207D2802005F060F8B4FBF0F1F8
:1031600000FB114068B100200096CDE9015000201D
:1031700000F0DCFB6946802000F07AF8040002D001
:1031800006E00120F0E705498020FFF765FF0446CF
:10319000002000F0CDFB2046FEBD0000B8AA0000D4
:1031A00008B14021016001487047000098070020E5
:1031B00004F030BF04F04ABF10B50C46010600F021
:1031C0000F02092A09D200F00BF8006828B1416803
:1031D0000A682146BDE810401047102010BD0000CD
:1031E000010600F00F0001D5034901E00249483112
:1031F00001EBC00070470000FC06002004F066BF31
:1032000010B5044600F00F00082805D2204604F04F
:103210007FFF204605F032F82046BDE8104004F05C
:1032200085BF000070B50C46054604F0BFFF18B11D
:1032300005480078022801D0082070BD21462846A4
:10324000BDE8704004F0B4BF8400002010B5FFF763
:10325000C7FF006810BD10B50C46FFF7C1FF046042
:103260001CB161680968416010BD0021FBE70000E6
:1032700070B50C46054604F099FF18B10548007872
:10328000022801D0082070BD21462846BDE87040C4
:1032900005F024B884000020F8B5044600782A4DD3
:1032A00005280BD1294800682849C0B2091F0968C0
:1032B00011F0FF0F04D1052802D1254C207818B356
:1032C000234F6946243F386A02F09DFF06001AD05A
:1032D00020683060002000F029FB6888E968401A07
:1032E000401CF080184800210C3002F0DFFFB08055
:1032F000002000F01DFB6946386A02F0A5FF014678
:10330000204607F055F9F8BDAE6905E031686088E0
:103310008968884730684668002EF7D1002000F0A1
:1033200005FBE86808B960886880074801210C300F
:1033300002F0A1FF002000F0FBFA0121204607F077
:1033400037F9E868F8BD000084000020847402406A
:1033500094AA000070B5774C0546017820780929B9
:103360007BD008DC092979D2DFE801F06A84B28DCC
:103370009FBBC283D700822927D017DC0A296ED0D1
:103380000F296DD080293BD0812972D16A48FFF77F
:103390005BFE6948FFF748FC0D2007F017F9FFF7BF
:1033A00053FCFFF7D3FD606950B906E0832931D0A3
:1033B000842937D085295CD193E06048007A00B138
:1033C000012005F023F901207EE0FFF73DFC05F028
:1033D00043F9002006F0ECF95748401CFFF724FCA5
:1033E0005548401CFFF730FE0E2007F0EFF820781C
:1033F00000F082FA00283CD0BDE8704002F0F0BF37
:10340000052803D0062803D0072832D102205BE02C
:10341000082059E003282CD105F042F9002828D0D3
:10342000042051E0032805D105F03AF910B1042039
:1034300006F0BEF905F090F900281AD0062043E006
:10344000032801D0082803D13B48801CFFF782FFE6
:10345000002007F0BBF8646909E060E009E060E083
:1034600044E02946204600F079FF20684468002C9B
:10347000F7D170BDFFF7E8FBFFF771FD022006F002
:1034800097F9012005E0082809D0052006F090F9F9
:10349000032007F09BF82846FFF7D6FD44E0022002
:1034A00006F086F905F024F8F2E7032007F08EF81D
:1034B0002148C01CFFF7C8FD1F48C01CFFF7B4FB24
:1034C00020780628A2D10720BDE8704006F070B928
:1034D000032006F06DF9022007F078F82846FFF780
:1034E000A3FB2846BDE87040FFF7AEBD0F2019E0F2
:1034F000A878FFF775FED0E90023294610469847C3
:103500000028B6D0A8780107B3D000F00F01082931
:10351000AFD2BDE8704004F08DBE082002E0092063
:1035200000E00A2007F052F82846BDE87040FFF797
:103530007BBB00008400002081AA00008C070020D3
:10354000FFF7AABEF8B5214C00250095204EA068D3
:103550004FF4006728B9211D306A02F06AFEA060AE
:10356000C0B1818869B1C188B94200D3C580C18822
:10357000ADF80210C188491CC1808188491E818034
:103580001FE0FFF7E7FE1149306A091D02F046FE11
:10359000A56019E0E068002817D0002000F0C6F907
:1035A0006088B84200D365806088ADF80200401C96
:1035B0006080064801210C3002F089FE002000F0F6
:1035C000B7F96846FFF7C6FE0120F8BD8400002069
:1035D00070AA00000148FFF75FBE000070AA00005B
:1035E000114642681368184770B5044640680D4696
:1035F000C2680AB12046904720462946FFF78AFC58
:1036000005464678002408E021462846FFF770FC6E
:10361000007804F05BFD641CE4B2B442F4D370BDE6
:103620002DE9F04180460E480E46056914E02F7AD8
:1036300000240DE021462846FFF76CFC0178414547
:1036400004D106B134702846BDE8F081641CE4B2B0
:10365000BC42EFD328680568002DE8D10020F3E7CD
:103660008400002070B50446406815460E46836805
:103670001BB120469847062803D1204631460DB19C
:10368000072070BDFFF746FC05464678002408E099
:1036900021462846FFF72CFC0078FFF7B1FD641C9B
:1036A000E4B2B442F4D3002070BD034600205A684F
:1036B0001269002A01D01846104770472DE9F843D7
:1036C0002E4C054608234FF484722B49206A02F0E1
:1036D00087FD10B10320BDE8F883294804F00EFFF0
:1036E0000028F8D127490870086148614821264818
:1036F000FCF723FF244848214830FCF71EFF2248EE
:1037000078307DB195E80E00183080E80E0000207A
:1037100002F0EAFE18B1852801D0FFF745FA1B4DEB
:10372000002611E004F138010EC9EDE7002703E09F
:1037300000782946FFF78FFD3946781CC7B240460E
:10374000FFF7D6FB0028F3D13146701CC6B22846DD
:10375000FFF7E0FB5FEA0008E8D160680090694687
:10376000284600F0FBFD040003D004F0EDFF2046E6
:10377000B1E70020AFE70000F405002070AA0000C8
:103780004135000084000020FC060020F8AA00005B
:1037900030B1012807D0022808D10548FFF77CBDC9
:1037A00003480838FAE70248001FF7E770470000AF
:1037B000A0AA000010B504F0E9FE10B104F0DCFE90
:1037C00008B1082010BD044802F0A2FE08B1FFF7BE
:1037D000EBF9002010BD0000A4AA000070B50C4653
:1037E0000F4901EB800555F82400017831B1002024
:1037F000FFF7D6FC002255F8241006E0801C70BDAF
:10380000521CD2B2491C20F812300B78002BF7D191
:10381000022101EB4201C9B241F44071018070BD47
:10382000C400002070B54FF0805086B0D0F8A810CA
:10383000D0F8A40089B241F44043009009A20D21C0
:1038400001A8FDF7E5FF01AD0024094E02E0285D67
:103850003055641C2846FCF77BFEA042F7D806B022
:1038600070BD000025303458253038580000000065
:10387000FC070020074803E0016811F0010F07D0A2
:103880000168C1F340010029F6D00348FFF704BDE9
:10389000704700003804004075AA0000034808B5CE
:1038A000806800906846FFF7F7FC08BD70AA00002A
:1038B00030B44FF0000180B10D4B002213F81240DC
:1038C00084420ED103EB4200407870B1094A02EB0A
:1038D000800252F8212042B100E0002030BCFFF706
:1038E0007DBF521CD2B2062AE8D330BC00207047FC
:1038F0009FAB0000C4000020092808D2DFE800F0D8
:10390000070705070705050505000120704700208A
:103910007047092808D2DFE800F007070507070706
:1039200007070500012070470020704700F002B82B
:1039300000F008B872B602480168491C016070477F
:103940005C00002003490868401E086000D162B690
:10395000704700005C000020102802D31038C0B26D
:10396000704740F08000704741094A4200EB421026
:1039700010B5044A0124844052F82130234342F810
:10398000213010BD880100202DE9F0470546861C36
:1039900091460F464FF0010A0020FFF7C7FF1B4C6E
:1039A00004F21C4860683860D4E90101184F401ADD
:1039B0003968081A0EE00121404602F05CFC02F072
:1039C000C3F90146404602F056FCD4E90101401A11
:1039D0003968081A401C8642EDD8B9F1000F03D0AF
:1039E000052065F3891002E0062065F39F506168A9
:1039F0003A68114004EB8101C8606068304460603F
:103A00000020FFF795FF5046BDE8F0878028002092
:103A10009801002070B50D4604460A2902D10D21F7
:103A2000FFF7F8FFA0682268411CA1601554D4E993
:103A30000101814204D32046BDE8704002F0B1BDCF
:103A400070BD0000044881684068814201D10120B6
:103A50007047002070470000802800204360CA693A
:103A60009A420DD38A690260886918448861086F98
:103A700018440867C869C01AC86100D0012070479F
:103A800001F12802026000208B67704770B506467E
:103A9000087800240D460F2838D2DFE800F03808F7
:103AA0003838370C11373732373838383800304625
:103AB00000F075FB2BE02946304605F0FFFC0FE0D7
:103AC000304600F071FC0146A878002481421ED0E7
:103AD0000106E9784FF0030004D531B901210CE06B
:103AE000044614E021B1012911D00329F8D10EE0D8
:103AF000304600F063FB04460021304606F060FDCE
:103B000005E00321304606F05BFDD0E706242046A1
:103B100070BD00002DE9F05FDFF858960C7A05467D
:103B200089F800400068164688464FF0000A40F2C7
:103B3000463254461F46A0F246314FF0020B9042E7
:103B400073D056DCB0F54A7F70D02BDC4FF4467250
:103B500090426CD013DC40F21531A0F2153388424C
:103B600073D007DCA8B3A0F5407013386ED00128DD
:103B700071D18BE0012B6BD0022B6CD1ACE040F209
:103B80002131A0F22132884271D006DCA0F54070CC
:103B900019386DD001285ED1C5E0012A69D0062A06
:103BA00059D1EBE040F23632A0F23631904278D073
:103BB00015DC40F22F31A0F22F32884271D009DC9F
:103BC000A0F5407029386DD004286CD0052842D16A
:103BD0001AE145E0052A67D0062A3CD141E1C91F18
:103BE000092938D2DFE801F0F837373737F7F6F52B
:103BF000F40013296FD00DDCA1F1030110292AD2A2
:103C0000DFE801F0F6F5F4F3F22929F1F0EFEE29FF
:103C100029EDECEB37290FD00FDC292973D007DC15
:103C2000142971D0282916D117E263E1B1E05EE0D2
:103C30002D296AD032290ED13FE2442971D008DC07
:103C40003E296FD03F2906D158E22EE012E002E073
:103C500036E04929F2D00020C5F800A0BDE8F09F69
:103C600008202871002F05D840F213300CE068E0DE
:103C70004CE071E00EB1287930700B2001242871DE
:103C8000012F03D84FF4457028602EE00EB128793B
:103C9000305598F81400641C2871BC4205D3296083
:103CA00023E0BDE082E0A4E0D0E00EB128793055F9
:103CB000641C85F804B0BC4202D340F21630E3E73E
:103CC0000EB128793055641C85F804B0BC4203D38A
:103CD00040F21730D8E79FE10EB128793055641CC7
:103CE00085F804B0BC4202D32A600120B6E70EB1C9
:103CF0002879305598F81900641C2871BC4205D306
:103D000040F21930C0E7B3E192E1C4E10EB1287985
:103D10003055641C85F804A0BC4204D340F21A302C
:103D2000B2E7FFE1DFE10EB12879305589F801A053
:103D3000641C09E209202871BC4202D340F2213000
:103D4000A2E70EB1287930550420641C2871BC42CA
:103D500002D340F2223097E70EB12879305599F816
:103D600001104046641CFFF7DFF8C9F80400007832
:103D70002871BC4202D340F2273085E70EB1287982
:103D80003055641C85F804A0BC4202D34FF44A703D
:103D90007AE70EB128793055D9F80400641CBC428A
:103DA0004078287102D340F229306DE70EB12879AE
:103DB0003055D9F8040098F81410641C007881423A
:103DC00039D185F804B0BC4213D340F22D305BE703
:103DD00085E079E06DE061E04EE011E105E1F9E0B8
:103DE000EDE0E1E0D5E0C9E0BCE0AFE0A3E097E0C2
:103DF0008BE00EB128793055641C85F804B0BC42C4
:103E000002D340F22E303FE70EB12879305598F8B2
:103E10001900641C2871BC4202D340F22F3033E7F2
:103E20000EB128793055641C85F804A0BC4223D318
:103E300040F23D3028E798F816108142F4D10A206C
:103E40002871BC4202D34FF44D701DE70EB12879A2
:103E50003055641C85F804A0BC4202D340F23530D2
:103E600012E70EB128793055641C85F804A0BC42D5
:103E7000D6D340F2363007E70EB128793055D9F85D
:103E8000040098F81410641C0078814275D1052054
:103E90002871BC4202D340F24230F5E60EB12879D7
:103EA00030552420641C2871BC4202D340F24330B8
:103EB000EAE60EB128793055641C85F804A0BC42AE
:103EC00002D34FF45170DFE60EB12879305510203F
:103ED000641C2871BC4202D340F24530D4E60EB1D6
:103EE000287930550120641C2871BC4202D340F26D
:103EF0004630C9E60EB1287930550520641C28717A
:103F0000BC4202D340F24930BEE60EB128793055AA
:103F10002420641C2871BC4202D340F24A30B3E62C
:103F20000EB1287930550120641C2871BC4202D39F
:103F300040F24B30A8E60EB1287930550320641CBE
:103F40002871BC4202D34FF453709DE60EB128791C
:103F5000305598F81600641C2871BC4202D340F218
:103F60004D3091E60EB1287930550420641C28713B
:103F7000BC4203D34FF4547086E65DE00EB128795D
:103F800030552420641C2871BC4202D340F25130C9
:103F90007AE60EB128793055641C85F804B0BC422D
:103FA00002D340F252306FE60EB128793055641CCE
:103FB00085F804B0BC4202D340F2533064E60EB13F
:103FC000287930550520641C2871BC4202D340F288
:103FD000563059E60EB1287930552420641C2871DA
:103FE000BC4202D340F257304EE60EB1287930552C
:103FF0000620641C2871BC4202D34FF4567043E67D
:104000000EB12879305598F81400641C2871BC4210
:1040100002D340F2593037E60EB12879305598F87E
:104020001600641C2871BC4202D340F25A302BE6C1
:104030000EB128793055641CD9F8041048464978E7
:1040400089F80210514689F803A075E0072028710D
:10405000BC4202D340F26E3016E60EB128793055DC
:104060000520641C2871BC4202D340F26F300BE67D
:104070000EB12879305599F80310641CD9F8040062
:10408000FEF73FFFC9F8080000782871BC4202D350
:1040900040F27330F8E50EB128793055D9F80400B4
:1040A00098F81410641C0078814211D10320287103
:1040B000BC4202D34FF45E70E6E50EB1287930556C
:1040C000641C40202871BC420DD34FF46170DBE5C5
:1040D00098F816108142F4D185F804B0BC42ECD3B4
:1040E00040F27D30D0E50EB128793055641C85F85A
:1040F00004A0BC4202D340F28530C5E50EB1287958
:104100003055D9F8040098F81410641C00788142E6
:1041100024D1D8F82000BC420078287102D340F2A4
:104120008A30B1E50EB128793055641C99F8031036
:104130004846491C89F803108278C9B2914285D358
:104140004178491C89F8011099F8011099F800008C
:104150008142FFF4EFAD40F29A3095E598F81610E1
:104160008142E3D185F804A0BC42DBD340F28F301A
:104170008AE50000B800002008B1032070470868F5
:1041800010F80C1F202901D006207047D0F802102B
:10419000C160C1880182017A817400207047026881
:1041A000002102F10C0011845162D1629167D16744
:1041B0004167343282668167704700002DE9FC4711
:1041C000046881460C3400F028F907462F48002681
:1041D0008068CDE90004E069B0B1D4F87880454644
:1041E000404500D205462A4604F12801A069FCF7A3
:1041F0008BF9206F2844C4E91C60A8EB0500E06639
:1042000060192830A06627E0206F60672667E666A1
:10421000216A304621B1626AA161C4E907202CE01D
:10422000A06130E004F11802616A82E84300E26EA6
:104230001AB38A4215D3A36E0A461946FCF764F9ED
:10424000E16EE069091AE166A16E0144A16660674A
:104250000021484606F0B4F9206A0028E2D1A661A0
:1042600011E0A16EFCF750F9E06E2067E169091AD0
:10427000E161A1690818A06105D069463846FEF7DA
:10428000D1FFBDE8FC870020FBE700001CAB00006D
:104290004360CA699A4204D38A6902600B67CB61A2
:1042A00003E001F1280202608B67002070470000E4
:1042B0000B48012291B101290ED0022905D0032912
:1042C00002D10021417001707047427004490122FF
:1042D000891C0448FEF7FABC4270704702707047B0
:1042E0004502002018AD000005494FF0FF320828B4
:1042F00041F8202002D3084480F85820704700007D
:10430000D8020020F0B54FF0FF3512B10023082687
:1043100001E008230C260C4C05E000BF54F8237084
:104320007F1C04D05B1CB342F8D32846F0BD26188E
:104330005DB286F8305044F82310002AF5D1E11818
:1043400081F85800F1E70000D80200200249084433
:1043500090F9300070470000D802002042681268CF
:104360001047000070B5084C050009D010342168D2
:10437000002907D008682060496828468847F6E782
:104380000834F4E770BD0000C4020020054A012192
:1043900020B1012805D19170FFF7E4BF51700020D2
:1043A000FAE77047C402002010B50021FEF7BCFDFB
:1043B0000021FEF7A6FD007810BD10B5D0E902344B
:1043C000D1E90220D11AA04101D3012010BD002063
:1043D00010BD10B5044612B11088002211E04FF64E
:1043E000FF70FAE7030A43EA0023A05C5840C0F3D9
:1043F0000313584080EA003080B2C3B280EA431011
:10440000521C8A42EED310BD10B50121FEF78CFD7F
:104410000021FEF776FD007810BD10B50121FEF7F2
:1044200083FD0121FEF76DFD007810BD2DE9FF41F0
:104430000C4620B14FF4064004B0BDE8F08120796D
:10444000002748F2096538B141F61D5601281BD0F6
:10445000022826D0681DEFE70220207102970397FB
:10446000E0680190694601A804F080FC50B1029810
:104470008188E18000882081BDF80010029804F056
:10448000F3FCD9E72846D7E70A4B6A460021A01D6E
:1044900004F024FC38B1074918398F61CF61A84274
:1044A000CAD13046C8E703488188019804F0DCFC93
:1044B000F5E700006801002010B50021024801F076
:1044C000F5FE80F3100010BD9C2C00204FF48032CC
:1044D0008A400168C1F848230068C0F80823704783
:1044E0004FF4A07202EB810189B200F04DBB2DE9BF
:1044F000F04105460E464FF4A07000EB860081B2F5
:1045000028684FF48034B440984622F07F47C0F8C2
:1045100008432868C0F84843286803F043F828682F
:1045200000EB8600C0F840752868C0F84443B8F135
:10453000000F02D02868C0F80443BDE8F08100688D
:10454000D0F804057047000070B54379234C44F857
:1045500023204279231D03EBC202224C1579204A05
:10456000121BD4082DB10825022000EB04401EA127
:1045700030E005680A88C5F8082590F90420897894
:10458000002A4FEA411104DB02F1E02282F8001414
:1045900005E002F00F0202F1E02282F8141D90F90A
:1045A00004100122002909DB01F01F0502FA05F5BC
:1045B0004909890001F1E021C1F800514179002544
:1045C00003EBC1010A71417943F83100032000EB8C
:1045D00004400EA102F08CFD284670BDDC000020D6
:1045E0000CB70000D4B6000052544320696E7374B7
:1045F000616E636520616C726561647920696E69C2
:104600007469616C697A65642E0000005254433A03
:1046100020696E697469616C697A65642E000000B6
:104620000A46022100F0A7BA4FF4827100F0ACBA3A
:1046300000680121016070470068012141607047F6
:104640002DE9F05F07460C464FF4A07000EB8400A4
:104650001FFA80FA38684FF48036A6409B4622F055
:104660007F45C0F848633868C0F808633868D0F8F8
:10467000048500EB8402D2F84095C2F8408551468B
:10468000386802F08FFFA9EB080020F07F40012876
:1046900006D1102003F01AF95146386802F082FF63
:1046A0003868D0F80485C0F84463A5EB080121F010
:1046B0007F413868012900EB840010D0C0F84055D4
:1046C0003868D0F804156FF07F4C6A1A521E22F039
:1046D0007F42ACEB0B03934217D362B118E06D1C21
:1046E000C0F84055102003F0F1F83868D0F8040500
:1046F00040450AD10CE000EB84006D1CC0F8405529
:104700003868D0F80405884202D00D20BDE8F09F3B
:1047100001223146384600F02EFA0020F6E76FEA13
:104720000061C90F61F31F107047000001060449C2
:1047300000D5903100F00F0001EB00107047000031
:10474000440300202DE9FC4180461F4615460E46D5
:1047500000240D4801F08CFD38B11120BDE8FC812A
:1047600006EB043002F0C2FE641CAC42F8D10648ED
:1047700001F075FDCDE90057334600220221404685
:1047800000F0DEF90020E9E78001002002F046BFDA
:10479000812002F071BF822002F06EBF832002F000
:1047A0006BBF842002F068BF852002F065BF8620C1
:1047B00002F062BF872002F05FBF000038B5882595
:1047C00005F0C2FC2846FFF7B1FF817B01240329D5
:1047D00015D00068002811D12846FFF7A0FF8440BB
:1047E000E1430C4802F0D4FF0B480A49806800906E
:1047F0000C398DF8025049686846884738BD28460C
:10480000FFF78DFF8440E143BDE83840014802F0E6
:10481000BFBF0000500000207CA9000038B505F0A3
:1048200093FC0020FFF782FF817B0124032906D03F
:10483000006870B1BDE838404C2002F095BF002000
:10484000FFF76DFF8440E143BDE83840094802F0BE
:104850009FBF0020FFF763FF8440E143054802F05B
:1048600097FF05480349C0680C39009049686846BD
:10487000884738BD500000207CA90000012002F0CC
:1048800017BF022002F014BF032002F011BF042062
:1048900002F00EBF052002F00BBF062002F008BF99
:1048A000072002F005BF000038B5082405F04CFCD5
:1048B0002046FFF73BFF817B032915D000680028C5
:1048C00012D12046FFF72BFF01218140C943074841
:1048D00002F05EFF06480549406900900C398DF8EA
:1048E000024049686846884738BD000050000020F3
:1048F0007CA9000070B50E4804680460BFF36F8F98
:10490000BFF34F8F01260CE094FAA4F0B0FA80F5C3
:104910002846FFF721F806FA05F18C43294605F0F1
:10492000BBFD002CF0D1BDE8704005F01BBC0000C1
:104930006C74024010B5054CA078FFF7F0FE0146FC
:10494000A078BDE8104005F0A7BD0000440000209D
:10495000F8B51A4800681A4DC6B2A878FFF7DFFE0E
:10496000012404FA00F12889EA68C04380B21043A8
:10497000014202D0A87805F0E9FC06F08000A8709A
:104980000020FFF7CCFE04FA00F68020FFF7C7FEF8
:1049900004FA00F006430A48F1430C3002F0F8FE36
:1049A0008020FFF7BCFE8440A86804430548AC6043
:1049B000006A0090696868468847F8BD80740240C4
:1049C000440000207CA9000038B5002000900F486A
:1049D0000068ADF802008820FFF7A1FE012505FA66
:1049E00000F40A486038006840B1C10301D4401C9B
:1049F00004D00820FFF793FE85402C4304498868C3
:104A00002043886049686846884738BD2075024061
:104A10004400002070470000F8B518480568284693
:104A200002F090FEBFF36F8FBFF34F8F144E154C03
:104A3000E80506D501206070706A009061686846DC
:104A40008847A8054FF0000705D56770B06A009049
:104A500061686846884768050ED5607800280BD0E5
:104A60006770094901200860582002F07DFEF06A55
:104A70000090616868468847F8BD000000740240F5
:104A80007CA900004400002008750240054908B5D3
:104A90000020487088700448406800904968684663
:104AA000884708BD440000207CA9000010B50378A9
:104AB0000022072B06D2DFE803F0050406102029A8
:104AC00030000A7010BD01230B7003898B8183882D
:104AD000CB81C06888600A7410BD02220A70028906
:104AE0008A818288CA81C2688A60807D062802D055
:104AF0000020087410BD0120FBE703220A70C28861
:104B00008A810289CA81C068886010BD04230B7045
:104B1000C0888881CA818A6010BD0520087010BDD8
:104B200070B5064D0646002455F8241009B13046EC
:104B30008847641C042CF7D370BD000028080020AF
:104B40002DE9F04387B00446DDE90E8980681D46F3
:104B500016460F4600280BD018216846FBF7EDFCDF
:104B600002A88DF8007080E86003A1686846884755
:104B700007B0BDE8F0830368C3F84413002A02D0ED
:104B80000068C0F80413704710B5006842581AB1A5
:104B900002F008FD012010BD002010BD82B0CDE95B
:104BA000000121F0004001909DED000B02B051EC9E
:104BB000100B7047034901EB8000A0F50830D0F8D6
:104BC000000870470802002070B52149214C0546B5
:104BD000091B40680323C9081C4A03EB0144002851
:104BE00024D0FFF7E7FF034628781BA152F82020C6
:104BF000204602F088FA287800281FD0012801D02A
:104C0000032822D1686800281FD1204618A1AA686D
:104C100002F072FAAA8920461AA102F06DFAEA8916
:104C20002046BDE870401BA102F066BA28781EA19C
:104C300052F82020204602F05FFADCE7686800287E
:104C400003D102490120091F087070BDF001002046
:104C500054B70000D4B600004576656E743A20253E
:104C60007320726563656976656420282573290061
:104C70005265636F72642049443A093078253034B4
:104C80007800000046696C652049443A093078256F
:104C9000303478005265636F7264206B65793A092D
:104CA00030782530347800004576656E743A2025DA
:104CB0007320726563656976656420284E52465F8D
:104CC000535543434553532900000000F0B587B0C6
:104CD00014216846FBF731FC2C4C207818B168464B
:104CE000FFF71EFF50E0201D01F0C2FAC0BB4FF0DD
:104CF000102041690004026940694B1C01D100FB8E
:104D000002F1234800220161A1F5F821C160214987
:104D100001F0FCFD002821D120481C238C221E49D3
:104D2000006801F05DFA03F0B7FD051E14D00228FB
:104D300012D000270126062D13D005A803F050FF3E
:104D400090B106700C2D1AD2DFE805F01911191177
:104D5000191819181913151348F20A6007B0F0BD95
:104D600012E026706760BAE748F20760F6E707715D
:104D700005E0032100E00221017100E0067105A8B1
:104D800003F03CFF03F094FF0020E7E770010020F0
:104D9000500200203CAC000038080020B8AB0000F6
:104DA00038B5040014D0694603F0E0FFB0B1BDF897
:104DB000000000EB80010B4800EB8100C16851B19D
:104DC000A17A41B1C168491EC1600020A07238BDFE
:104DD00048F2046038BD48F2056038BD48F2096009
:104DE00038BD0000C40800201FB501A9684603F0C3
:104DF00075FF04B010BD00002DE9FC410E46050012
:104E00002ED06EB301A903F0B1FF78B36C68002215
:104E10000621B4F8068067882046FFF7DAFAB90061
:104E2000ADF8000001276A4604F10800091DFFF7EC
:104E3000D0FAADF80000404515D1BDF804000D4989
:104E400000EB800001EB800001210C3001F013FA2F
:104E5000346068680C307060AF720020BDE8FC817F
:104E600048F20460FAE748F20C60F7E7FFE748F21F
:104E70000960F3E7C408002018B10323002205F0FD
:104E8000D1BB48F2046070470223002205F0CABB80
:104E9000094910B50A69042A0AD0084A096942F882
:104EA000210005480121103001F0E5F9002010BD76
:104EB00048F20B6010BD00005001002028080020BF
:104EC0002DE9F84F044624480078D8B1F4B11221F6
:104ED0002046FBF732FB7C20DFF880902080002505
:104EE00004F1100804F10E0A05EB850109EB8106B7
:104EF00030897189084487B2706803F057FC032831
:104F000007D009E048F20160BDE8F88F48F204607C
:104F1000FAE72088401E20806088F168084460809D
:104F20002089718908442081608938446081C7F5EF
:104F30008060A18980B2814200D2A0815346A21D27
:104F4000211D2846CDF8008003F0ACFF6D1CADB2EA
:104F50007B2DC9D30020D7E770010020C4080020B2
:104F60007FB50E4605460122002101A800F040F958
:104F700001002E482E4AA0EB02004FEAD0004FF06D
:104F8000030202EB004410D00422294601A800F0DD
:104F90001FFA002847D0204626A12A6802F0ACF864
:104FA00001F08EFF0028FBD112E020462AA102F07A
:104FB0009FF800BF01F084FF0028FBD1042000907F
:104FC0002B460122002101A800F094F800282AD0E5
:104FD0000222002101A800F00BF980B12C223146F9
:104FE00001A800F0F5F900281DD0204624A1326860
:104FF00002F082F801F064FF0028FBD112E02046A5
:105000002FA102F075F800BF01F05AFF0028FBD174
:105010002C20009033460222002101A800F06AF8FB
:10502000002800D0012004B070BD000054B700007B
:10503000D4B600004E756D626572206F6620736194
:105040007665642073776565707320666F756E642E
:105050002C2025640000000053617665642073777E
:1050600065657073206E6F7420666F756E642C209A
:105070006372656174696E67207265636F72640044
:105080005361766564207377656570207061726125
:105090006D657465727320666F756E6420776974D0
:1050A00068207374617274696E67206672657175C9
:1050B000656E6379206F6620256420487A000000C1
:1050C00053617665642073776565702070617261E5
:1050D0006D6574657273206E6F7420666F756E6493
:1050E0002C206372656174696E67207265636F72EC
:1050F000640000002DE9FF470D46814600912148DC
:1051000021499846401AC10803200C9F00EB01403A
:105110001646134604463A461CA101F0FCFF00BFA8
:1051200001F0CEFE0028FBD1FF1CB808CDE90280BB
:10513000ADF80450ADF8066001A94846FFF7A4FE9B
:1051400028B1A0F50641063910D0FDF72DFD204607
:105150002B46324618A101F0D6FF00BF01F0B0FE89
:105160000028FBD1012004B0BDE8F08720462B4683
:10517000324617A101F0C7FF01F0A2FE0028FBD1C3
:10518000F1E7000054B70000D4B60000577269740C
:10519000696E6720256420627974657320746F20BE
:1051A0007265636F726420256420696E2066696C85
:1051B00065202564000000005772697465207265DF
:1051C000636F72642073756363657373000000001E
:1051D000466C6173682066756C6C2C2077726974FC
:1051E00065207265636F7264206661696C000000FF
:1051F0002DE9FC41074600200D460090019016481D
:1052000016491646401AC108032000EB0140044627
:105210002B4613A101F077FF01F052FE0028FBD1CD
:10522000B1B2A8B26B463A46FFF7DEFD0028204631
:1052300008D014A101F05CFF01F042FE0028FBD170
:10524000BDE8FC8114A101F053FF00BF01F038FE5E
:105250000028FBD10120F3E754B70000D4B60000CA
:105260004C6F6F6B696E6720666F72207265636F3B
:10527000726420257820696E2066696C6520257827
:10528000000000005265636F7264206E6F742066C8
:105290006F756E64000000005265636F7264206673
:1052A0006F756E64000000002DE9FE4388460746D6
:1052B0002D482E491C46401AC108032000EB01402E
:1052C000164605462AA1DDF8289001F011FF00BF1F
:1052D00001F0F6FD0028FBD1042249466846FFF79D
:1052E00087FF00283DD00C222146684600F070F868
:1052F000002836D0012249466846FFF779FF00288A
:105300002FD0A06839468200684600F061F8002876
:1053100027D0022249466846FFF76AFF002820D0BE
:10532000A06841464200684600F052F8002818D0B4
:10533000032249466846FFF75BFF002811D0A068AA
:1053400031464200684600F043F8002809D028465C
:105350000CA101F0CDFE00BF01F0B2FD0028FBD191
:105360000120BDE8FE83000054B70000D4B6000061
:105370005374617274696E67206765742073776512
:1053800065700000537765657020676574207375DC
:10539000636365737300000000B585B00A48FFF7CA
:1053A00077FDFFF793FC08B1FDF7FEFB0748017896
:1053B00041B16846FFF784FD08B1FDF7F5FB05B084
:1053C000012000BD20BFF2E7C94B0000EC01002026
:1053D0002DE9FC410D4607461B481C491646401A5C
:1053E000C108032000EB0140044619A101F080FE32
:1053F00001F066FD0028FBD169463846FFF7FCFC4A
:1054000060B1FFF7D7FB0246204616A101F074FEFB
:1054100001F056FD0028FBD1BDE8FC81324628464C
:105420000199FBF771F83846FFF7BAFC08B1002084
:10543000F2E7204611A101F05BFE00BF01F040FD44
:105440000028FBD10120E7E754B70000D4B60000E4
:1054500052656164696E672066726F6D2072656364
:105460006F7264004572726F72206F70656E696E44
:10547000672066696C653A20257300005265616497
:105480002073756363657373000000002DE9FF47A7
:105490000F46804625482649DDF83090401AC1085D
:1054A000032000EB014016461D4604464A4621A152
:1054B00001F022FE01F004FD0028FBD1A86843465C
:1054C000800000900122494601A8FFF713FE002842
:1054D00029D0A8683B46400000900222494601A816
:1054E000FFF708FE00281ED0A86833464000009051
:1054F0000322494601A8FFF7FDFD002813D00C2028
:1055000000902B460422494601A8FFF7F3FD00282E
:1055100009D020460DA101F0EBFD00BF01F0D0FC49
:105520000028FBD1012004B0BDE8F08754B700008B
:10553000D4B600005374617274696E67207361762B
:105540006520737765657020256400005377656575
:1055500070207361766520737563636573730000F3
:105560001FB50446026811481149401AC0080321BA
:1055700001EB00400FA101F0BFFD00BF01F0A0FC56
:105580000028FBD10122002101A8FFF731FE0028ED
:105590000AD00420009023460122002101A800F037
:1055A0001DF8002800D0012004B010BD54B7000041
:1055B000D4B600005570646174696E67206E756DB5
:1055C000626572206F66207361766564207377650B
:1055D00065707320746F2025640000002DE9FE4380
:1055E0000D468146204821499846401AC1080320AB
:1055F00000EB0140164604462B461DA10A9F01F010
:1056000082FD00BF01F05CFC0028FBD1ADF800502A
:10561000FF1CADF80260B808CDE901806946484634
:10562000FFF72AFC28B1A0F5064106390FD0FDF797
:10563000BBFA20462B46324615A101F064FD00BF9F
:1056400001F03EFC0028FBD10120BDE8FE8320468E
:105650002B46324614A101F056FD00BF01F030FC8C
:105660000028FBD1F1E7000054B70000D4B60000D9
:105670005570646174696E67207265636F7264202F
:1056800025642061742066696C6520256400000033
:105690005772697465207265636F726420737563F5
:1056A0006365737300000000466C61736820667563
:1056B0006C6C2C207772697465207265636F7264FC
:1056C000206661696C000000406803F09FBA00002A
:1056D00070B510B14FF4064070BD1D4C002594F814
:1056E000850010B184F8855001E000F0A7F820781B
:1056F000082829D2DFE800F02804080C102814211B
:10570000BDE8704000F028B8BDE8704000F084B8F3
:10571000BDE8704000F066B8BDE8704000F042B8E7
:105720000620207060880B4900EB800001EB8000B0
:105730004068BDE8704003F08FB8072020706560B6
:10574000BDE8704003F096B848F20E6070BD0000EE
:1057500060120020C40800201149F0B48A1C002007
:105760000346A1F69C150C18A67A4EB1A37200EB65
:10577000800405EB8404E66816B9247C012C0AD069
:10578000401C80B27B28EED30B704B804B60F0BC8A
:1057900041F61D5070471080F0BC00F03DB800008D
:1057A000601200200C48418801EB8102A0F69C1198
:1057B00001EB8201CA6852B105210170074802213C
:1057C0008180016800230122054801F003B804220A
:1057D00002704968F6E7000060120020780100209E
:1057E0005002002038B50A49084803240B68426873
:1057F000898803EB810153880470DB1C00201B04A3
:1058000000909B0B034801F0CBF838BD60120020DC
:105810007801002050020020074910B54888091D72
:1058200003F0F4FA18B1BDE81040FFF7DBBFBDE8A4
:105830001040FFF7B7BF00006012002070B5194C90
:105840000121207808281AD2DFE800F00419191C79
:10585000252929182089144A401C208100206080B5
:1058600084F8850000EB800312F8233043B1002355
:105870002518401C80B2AB727B28F3D3217070BD19
:105880000123F5E76068094940888A88C01C1044F4
:105890008880022004E000F00BF8062000E00720DA
:1058A000207070BD60120020C40800207801002024
:1058B0000A4909484988026801EB8103084901EB5C
:1058C00083014B6803604A6082880A8102228280D9
:1058D000002008747047000078010020601200204A
:1058E000C4080020F0B50D4C0246002004F11C0550
:1058F00004F138034AB154F82060964205D353F8B6
:10590000206055F82070BE4207D153F820608E42C7
:1059100003D8401C0728EDD30020F0BD5CAC00008C
:1059200010B501460020FFF7DDFF024951F82000C5
:1059300010BD00005CAC000010B50B48FEF7FFFD89
:10594000094A083AD2E90434C018D2E9063244F1CF
:105950000001C31A71EB020204D24FF0807280186A
:1059600041F1000110BD0000680000201CB502F0EC
:1059700069F808B1FDF718F91A4C694620680090DB
:105980000D2002F09DF808B1FDF70EF969460F20D1
:1059900002F096F808B1FDF707F96946102002F009
:1059A0008FF808B1FDF700F96068019003208DF8C9
:1059B00005000D4A01A90B2001F0DCFF08B1FDF73D
:1059C000F3F801210B2001F089FF074A01A90C20FF
:1059D00001F0D0FF08B1FDF7E7F801210C2001F03C
:1059E0007DFF1CBD14A900002D5A0000428800EB69
:1059F00082020C328A4201D9022070478188A1F5C7
:105A00007F42FF3A06D0018821B18068401C01D056
:105A10000020704701207047884204D20068401C73
:105A200001D00120704700207047000010B50B28FE
:105A30000BD00C2813D1022911D1094802F09EF98C
:105A4000BDE810400D2002F097B8022907D10448A4
:105A500002F0A0F9BDE810400D2002F02FB810BDF3
:105A600024A90000014941600020704730AC0000CB
:105A70002DE9F0412D4F002520B17D604FF4064007
:105A8000BDE8F0810879012258B1294E01280CD0D7
:105A9000264C4FF002080834022820D0032840D1B9
:105AA00027E00A7102F0E6FE39E0002000EB8001F9
:105AB00016F82110022908D0401C80B27B28F5D3AB
:105AC0003A707D6041F61D50DAE700EB800006F881
:105AD000205006EB8000406802F0BEFE1FE00D7112
